{
  "contractName": "Exchange",
  "abi": [
    {
      "inputs": [
        {
          "internalType": "address",
          "name": "_feeAccount",
          "type": "address"
        },
        {
          "internalType": "uint256",
          "name": "_feePercent",
          "type": "uint256"
        }
      ],
      "stateMutability": "nonpayable",
      "type": "constructor"
    },
    {
      "anonymous": false,
      "inputs": [
        {
          "indexed": false,
          "internalType": "uint256",
          "name": "id",
          "type": "uint256"
        },
        {
          "indexed": false,
          "internalType": "address",
          "name": "user",
          "type": "address"
        },
        {
          "indexed": false,
          "internalType": "address",
          "name": "tokenGet",
          "type": "address"
        },
        {
          "indexed": false,
          "internalType": "uint256",
          "name": "amountGet",
          "type": "uint256"
        },
        {
          "indexed": false,
          "internalType": "address",
          "name": "tokenGive",
          "type": "address"
        },
        {
          "indexed": false,
          "internalType": "uint256",
          "name": "amountGive",
          "type": "uint256"
        },
        {
          "indexed": false,
          "internalType": "uint256",
          "name": "timeStamp",
          "type": "uint256"
        }
      ],
      "name": "Cancel",
      "type": "event"
    },
    {
      "anonymous": false,
      "inputs": [
        {
          "indexed": false,
          "internalType": "address",
          "name": "token",
          "type": "address"
        },
        {
          "indexed": false,
          "internalType": "address",
          "name": "user",
          "type": "address"
        },
        {
          "indexed": false,
          "internalType": "uint256",
          "name": "amount",
          "type": "uint256"
        },
        {
          "indexed": false,
          "internalType": "uint256",
          "name": "balance",
          "type": "uint256"
        }
      ],
      "name": "Deposit",
      "type": "event"
    },
    {
      "anonymous": false,
      "inputs": [
        {
          "indexed": false,
          "internalType": "uint256",
          "name": "id",
          "type": "uint256"
        },
        {
          "indexed": false,
          "internalType": "address",
          "name": "user",
          "type": "address"
        },
        {
          "indexed": false,
          "internalType": "address",
          "name": "tokenGet",
          "type": "address"
        },
        {
          "indexed": false,
          "internalType": "uint256",
          "name": "amountGet",
          "type": "uint256"
        },
        {
          "indexed": false,
          "internalType": "address",
          "name": "tokenGive",
          "type": "address"
        },
        {
          "indexed": false,
          "internalType": "uint256",
          "name": "amountGive",
          "type": "uint256"
        },
        {
          "indexed": false,
          "internalType": "uint256",
          "name": "timeStamp",
          "type": "uint256"
        }
      ],
      "name": "Order",
      "type": "event"
    },
    {
      "anonymous": false,
      "inputs": [
        {
          "indexed": false,
          "internalType": "uint256",
          "name": "id",
          "type": "uint256"
        },
        {
          "indexed": false,
          "internalType": "address",
          "name": "user",
          "type": "address"
        },
        {
          "indexed": false,
          "internalType": "address",
          "name": "tokenGet",
          "type": "address"
        },
        {
          "indexed": false,
          "internalType": "uint256",
          "name": "amountGet",
          "type": "uint256"
        },
        {
          "indexed": false,
          "internalType": "address",
          "name": "tokenGive",
          "type": "address"
        },
        {
          "indexed": false,
          "internalType": "uint256",
          "name": "amountGive",
          "type": "uint256"
        },
        {
          "indexed": false,
          "internalType": "address",
          "name": "userFill",
          "type": "address"
        },
        {
          "indexed": false,
          "internalType": "uint256",
          "name": "timeStamp",
          "type": "uint256"
        }
      ],
      "name": "Trade",
      "type": "event"
    },
    {
      "anonymous": false,
      "inputs": [
        {
          "indexed": false,
          "internalType": "address",
          "name": "token",
          "type": "address"
        },
        {
          "indexed": false,
          "internalType": "address",
          "name": "user",
          "type": "address"
        },
        {
          "indexed": false,
          "internalType": "uint256",
          "name": "amount",
          "type": "uint256"
        },
        {
          "indexed": false,
          "internalType": "uint256",
          "name": "balance",
          "type": "uint256"
        }
      ],
      "name": "Withdraw",
      "type": "event"
    },
    {
      "stateMutability": "payable",
      "type": "fallback",
      "payable": true
    },
    {
      "inputs": [
        {
          "internalType": "uint256",
          "name": "",
          "type": "uint256"
        }
      ],
      "name": "allOrders",
      "outputs": [
        {
          "internalType": "uint256",
          "name": "",
          "type": "uint256"
        }
      ],
      "stateMutability": "view",
      "type": "function",
      "constant": true
    },
    {
      "inputs": [
        {
          "internalType": "uint256",
          "name": "",
          "type": "uint256"
        }
      ],
      "name": "cancelledOrders",
      "outputs": [
        {
          "internalType": "uint256",
          "name": "",
          "type": "uint256"
        }
      ],
      "stateMutability": "view",
      "type": "function",
      "constant": true
    },
    {
      "inputs": [],
      "name": "feeAccount",
      "outputs": [
        {
          "internalType": "address",
          "name": "",
          "type": "address"
        }
      ],
      "stateMutability": "view",
      "type": "function",
      "constant": true
    },
    {
      "inputs": [],
      "name": "feePercent",
      "outputs": [
        {
          "internalType": "uint256",
          "name": "",
          "type": "uint256"
        }
      ],
      "stateMutability": "view",
      "type": "function",
      "constant": true
    },
    {
      "inputs": [
        {
          "internalType": "uint256",
          "name": "",
          "type": "uint256"
        }
      ],
      "name": "filledOrders",
      "outputs": [
        {
          "internalType": "uint256",
          "name": "",
          "type": "uint256"
        }
      ],
      "stateMutability": "view",
      "type": "function",
      "constant": true
    },
    {
      "inputs": [],
      "name": "nextOrderId",
      "outputs": [
        {
          "internalType": "uint256",
          "name": "",
          "type": "uint256"
        }
      ],
      "stateMutability": "view",
      "type": "function",
      "constant": true
    },
    {
      "inputs": [
        {
          "internalType": "uint256",
          "name": "",
          "type": "uint256"
        }
      ],
      "name": "orderCancelled",
      "outputs": [
        {
          "internalType": "bool",
          "name": "",
          "type": "bool"
        }
      ],
      "stateMutability": "view",
      "type": "function",
      "constant": true
    },
    {
      "inputs": [],
      "name": "orderCount",
      "outputs": [
        {
          "internalType": "uint256",
          "name": "",
          "type": "uint256"
        }
      ],
      "stateMutability": "view",
      "type": "function",
      "constant": true
    },
    {
      "inputs": [
        {
          "internalType": "uint256",
          "name": "",
          "type": "uint256"
        }
      ],
      "name": "orderFilled",
      "outputs": [
        {
          "internalType": "bool",
          "name": "",
          "type": "bool"
        }
      ],
      "stateMutability": "view",
      "type": "function",
      "constant": true
    },
    {
      "inputs": [
        {
          "internalType": "uint256",
          "name": "",
          "type": "uint256"
        }
      ],
      "name": "orders",
      "outputs": [
        {
          "internalType": "uint256",
          "name": "id",
          "type": "uint256"
        },
        {
          "internalType": "address",
          "name": "user",
          "type": "address"
        },
        {
          "internalType": "address",
          "name": "tokenGet",
          "type": "address"
        },
        {
          "internalType": "uint256",
          "name": "amountGet",
          "type": "uint256"
        },
        {
          "internalType": "address",
          "name": "tokenGive",
          "type": "address"
        },
        {
          "internalType": "uint256",
          "name": "amountGive",
          "type": "uint256"
        },
        {
          "internalType": "uint256",
          "name": "timeStamp",
          "type": "uint256"
        }
      ],
      "stateMutability": "view",
      "type": "function",
      "constant": true
    },
    {
      "inputs": [
        {
          "internalType": "address",
          "name": "",
          "type": "address"
        },
        {
          "internalType": "address",
          "name": "",
          "type": "address"
        }
      ],
      "name": "tokens",
      "outputs": [
        {
          "internalType": "uint256",
          "name": "",
          "type": "uint256"
        }
      ],
      "stateMutability": "view",
      "type": "function",
      "constant": true
    },
    {
      "stateMutability": "payable",
      "type": "receive",
      "payable": true
    },
    {
      "inputs": [],
      "name": "depositEther",
      "outputs": [],
      "stateMutability": "payable",
      "type": "function",
      "payable": true
    },
    {
      "inputs": [
        {
          "internalType": "uint256",
          "name": "_amount",
          "type": "uint256"
        }
      ],
      "name": "withdrawEther",
      "outputs": [],
      "stateMutability": "nonpayable",
      "type": "function"
    },
    {
      "inputs": [
        {
          "internalType": "address",
          "name": "_token",
          "type": "address"
        },
        {
          "internalType": "uint256",
          "name": "_amount",
          "type": "uint256"
        }
      ],
      "name": "depositToken",
      "outputs": [],
      "stateMutability": "nonpayable",
      "type": "function"
    },
    {
      "inputs": [
        {
          "internalType": "address",
          "name": "_token",
          "type": "address"
        },
        {
          "internalType": "uint256",
          "name": "_amount",
          "type": "uint256"
        }
      ],
      "name": "withdrawToken",
      "outputs": [],
      "stateMutability": "nonpayable",
      "type": "function"
    },
    {
      "inputs": [
        {
          "internalType": "address",
          "name": "_token",
          "type": "address"
        },
        {
          "internalType": "address",
          "name": "_user",
          "type": "address"
        }
      ],
      "name": "balanceOf",
      "outputs": [
        {
          "internalType": "uint256",
          "name": "",
          "type": "uint256"
        }
      ],
      "stateMutability": "view",
      "type": "function",
      "constant": true
    },
    {
      "inputs": [
        {
          "internalType": "address",
          "name": "_tokenGet",
          "type": "address"
        },
        {
          "internalType": "uint256",
          "name": "_amountGet",
          "type": "uint256"
        },
        {
          "internalType": "address",
          "name": "_tokenGive",
          "type": "address"
        },
        {
          "internalType": "uint256",
          "name": "_amountGive",
          "type": "uint256"
        }
      ],
      "name": "makeOrder",
      "outputs": [],
      "stateMutability": "nonpayable",
      "type": "function"
    },
    {
      "inputs": [
        {
          "internalType": "uint256",
          "name": "_id",
          "type": "uint256"
        }
      ],
      "name": "cancelOrder",
      "outputs": [],
      "stateMutability": "nonpayable",
      "type": "function"
    },
    {
      "inputs": [
        {
          "internalType": "uint256",
          "name": "_id",
          "type": "uint256"
        }
      ],
      "name": "fillOrder",
      "outputs": [],
      "stateMutability": "nonpayable",
      "type": "function"
    },
    {
      "inputs": [],
      "name": "getAllOrders",
      "outputs": [
        {
          "components": [
            {
              "internalType": "uint256",
              "name": "id",
              "type": "uint256"
            },
            {
              "internalType": "address",
              "name": "user",
              "type": "address"
            },
            {
              "internalType": "address",
              "name": "tokenGet",
              "type": "address"
            },
            {
              "internalType": "uint256",
              "name": "amountGet",
              "type": "uint256"
            },
            {
              "internalType": "address",
              "name": "tokenGive",
              "type": "address"
            },
            {
              "internalType": "uint256",
              "name": "amountGive",
              "type": "uint256"
            },
            {
              "internalType": "uint256",
              "name": "timeStamp",
              "type": "uint256"
            }
          ],
          "internalType": "struct Exchange._Order[]",
          "name": "",
          "type": "tuple[]"
        }
      ],
      "stateMutability": "view",
      "type": "function",
      "constant": true
    },
    {
      "inputs": [],
      "name": "getCancelledOrders",
      "outputs": [
        {
          "internalType": "uint256[]",
          "name": "",
          "type": "uint256[]"
        }
      ],
      "stateMutability": "view",
      "type": "function",
      "constant": true
    },
    {
      "inputs": [],
      "name": "getFilledOrders",
      "outputs": [
        {
          "internalType": "uint256[]",
          "name": "",
          "type": "uint256[]"
        }
      ],
      "stateMutability": "view",
      "type": "function",
      "constant": true
    }
  ],
  "bytecode": "0x608060405234801561000f575f80fd5b5060405161166d38038061166d83398101604081905261002e91610056565b5f80546001600160a01b0319166001600160a01b03939093169290921790915560015561008d565b5f8060408385031215610067575f80fd5b82516001600160a01b038116811461007d575f80fd5b6020939093015192949293505050565b6115d38061009a5f395ff3fe608060405260043610610138575f3560e01c80637b61a4fa116100aa5780639e281a981161006e5780639e281a98146103a8578063a85c38ef146103c7578063bc15e6011461043f578063e9c189661461045e578063eb5945e41461048c578063f7888aec146104ab57610147565b80637b61a4fa146103375780637bea0d1c1461034b5780637fd6f15c1461036c57806398ea5fca146103815780639a5c90aa1461038957610147565b80634a93e0da116100fc5780634a93e0da1461022e578063508493bc1461026c578063514fcac7146102a257806365e17c9d146102c157806367b830ad146102f757806377f379c71461031657610147565b806316eea7d5146101945780632453ffa8146101c65780632a58b330146101db578063338b5dea146101f05780633bed33ce1461020f57610147565b36610147576101456104ca565b005b60405162461bcd60e51b815260206004820152601860248201527f46616c6c6261636b2066756e6374696f6e2063616c6c6564000000000000000060448201526064015b60405180910390fd5b34801561019f575f80fd5b506101b36101ae3660046112a0565b610552565b6040519081526020015b60405180910390f35b3480156101d1575f80fd5b506101b360045481565b3480156101e6575f80fd5b506101b3600a5481565b3480156101fb575f80fd5b5061014561020a3660046112d2565b610571565b34801561021a575f80fd5b506101456102293660046112a0565b610728565b348015610239575f80fd5b5061025c6102483660046112a0565b60066020525f908152604090205460ff1681565b60405190151581526020016101bd565b348015610277575f80fd5b506101b36102863660046112fa565b600260209081525f928352604080842090915290825290205481565b3480156102ad575f80fd5b506101456102bc3660046112a0565b61083d565b3480156102cc575f80fd5b505f546102df906001600160a01b031681565b6040516001600160a01b0390911681526020016101bd565b348015610302575f80fd5b506101456103113660046112a0565b610996565b348015610321575f80fd5b5061032a610b36565b6040516101bd919061132b565b348015610342575f80fd5b5061032a610b8c565b348015610356575f80fd5b5061035f610be0565b6040516101bd919061136e565b348015610377575f80fd5b506101b360015481565b6101456104ca565b348015610394575f80fd5b506101456103a33660046113ff565b610d47565b3480156103b3575f80fd5b506101456103c23660046112d2565b610e88565b3480156103d2575f80fd5b5061042c6103e13660046112a0565b600360208190525f9182526040909120805460018201546002830154938301546004840154600585015460069095015493956001600160a01b03938416959084169492939091169187565b6040516101bd9796959493929190611440565b34801561044a575f80fd5b506101b36104593660046112a0565b611099565b348015610469575f80fd5b5061025c6104783660046112a0565b60056020525f908152604090205460ff1681565b348015610497575f80fd5b506101b36104a63660046112a0565b6110a8565b3480156104b6575f80fd5b506101b36104c53660046112fa565b6110b7565b335f9081525f8051602061157e8339815191526020526040812080543492906104f4908490611492565b9091555050335f8181525f8051602061157e83398151915260205260408082205490517fdcbc1c05240f31ff3ad067ef1ee35ce4997762752e3a095284754544f4c709d793610548939290913491906114a5565b60405180910390a1565b60098181548110610561575f80fd5b5f91825260209091200154905081565b6001600160a01b0382166105d55760405162461bcd60e51b815260206004820152602560248201527f43616e6e6f74206465706f73697420457468657220696e20746869732066756e60448201526431ba34b7b760d91b606482015260840161018b565b6040516323b872dd60e01b8152336004820152306024820152604481018290526001600160a01b038316906323b872dd906064016020604051808303815f875af1158015610625573d5f803e3d5ffd5b505050506040513d601f19601f8201168201806040525081019061064991906114ce565b61068d5760405162461bcd60e51b8152602060048201526015602482015274151bdad95b881d1c985b9cd9995c8819985a5b1959605a1b604482015260640161018b565b6001600160a01b0382165f908152600260209081526040808320338452909152812080548392906106bf908490611492565b90915550506001600160a01b0382165f908152600260209081526040808320338085529252918290205491517fdcbc1c05240f31ff3ad067ef1ee35ce4997762752e3a095284754544f4c709d79261071c928692909186916114a5565b60405180910390a15050565b335f9081525f8051602061157e83398151915260205260409020548111156107895760405162461bcd60e51b8152602060048201526014602482015273496e73756666696369656e742062616c616e636560601b604482015260640161018b565b335f9081525f8051602061157e8339815191526020526040812080548392906107b39084906114f4565b9091555050604051339082156108fc029083905f818181858888f193505050501580156107e2573d5f803e3d5ffd5b50335f8181525f8051602061157e83398151915260205260408082205490517ff341246adaac6f497bc2a656f546ab9e182111d630394f0c57c710a59a2cb56793610832939290918691906114a5565b60405180910390a150565b5f8181526003602052604090208054821461088d5760405162461bcd60e51b815260206004820152601060248201526f125b9d985b1a59081bdc99195c88125160821b604482015260640161018b565b60018101546001600160a01b031633146108e95760405162461bcd60e51b815260206004820152601960248201527f556e617574686f72697a65642063616e63656c6c6174696f6e00000000000000604482015260640161018b565b5f828152600560208190526040808320805460ff191660019081179091556008805491820181559093527ff3f7a9fe364faab93b216da50a3214154f22a0a2b415b23a84c8169e8b636ee3909201849055825460028401546003850154600486015493860154600687015495517f77de1da0be5f2d3b110d05c6694e5c4ff2d9da7cd23d84353ecf78c7b5acec619661071c9633956001600160a01b039081169594911692909190611440565b5f811180156109a757506004548111155b6109e65760405162461bcd60e51b815260206004820152601060248201526f125b9d985b1a59081bdc99195c88125160821b604482015260640161018b565b5f8181526006602052604090205460ff1615610a3b5760405162461bcd60e51b815260206004820152601460248201527313dc99195c88185b1c9958591e48199a5b1b195960621b604482015260640161018b565b5f8181526005602052604090205460ff1615610a995760405162461bcd60e51b815260206004820152601760248201527f4f7264657220616c72656164792063616e63656c6c6564000000000000000000604482015260640161018b565b5f81815260036020819052604090912080546001820154600283015493830154600484015460058501549495610ae3956001600160a01b03948516949182169392909116906110e3565b80545f908152600660205260408120805460ff1916600190811790915591546009805493840181559091527f6e1540171b6c0c960b71a7020d9f60077f6af931a8bbf590da0223dacf75c7af9091015550565b60606009805480602002602001604051908101604052809291908181526020018280548015610b8257602002820191905f5260205f20905b815481526020019060010190808311610b6e575b5050505050905090565b60606008805480602002602001604051908101604052809291908181526020018280548015610b8257602002820191905f5260205f2090815481526020019060010190808311610b6e575050505050905090565b60605f60045467ffffffffffffffff811115610bfe57610bfe611507565b604051908082528060200260200182016040528015610c8357816020015b610c706040518060e001604052805f81526020015f6001600160a01b031681526020015f6001600160a01b031681526020015f81526020015f6001600160a01b031681526020015f81526020015f81525090565b815260200190600190039081610c1c5790505b5090505f5b600454811015610d415760035f610ca0836001611492565b815260208082019290925260409081015f20815160e0810183528154815260018201546001600160a01b039081169482019490945260028201548416928101929092526003810154606083015260048101549092166080820152600582015460a082015260069091015460c08201528251839083908110610d2357610d2361151b565b60200260200101819052508080610d399061152f565b915050610c88565b50919050565b60048054905f610d568361152f565b9091555050600480546007805460018082019092557fa66cc928b5edb82af9bd49922954155ab7b0942694bea4ce44661d9a8736c688018290556040805160e0810182528381523360208083018281526001600160a01b038c8116858701908152606086018d81528c83166080880190815260a088018d81524260c08a018181525f9d8e526003988990529c8b902099518a5595519a890180546001600160a01b03199081169c87169c909c17905592516002890180548c169186169190911790559051948701949094559251858a0180549098169116179095555160058301559351600690910155925492517f9d33853d43e3607b4cc01fdc78338ff2dca6fef7db9232dae6d3eb55fbc3b10993610e7a93909290918991899189918991611440565b60405180910390a150505050565b6001600160a01b038216610eef5760405162461bcd60e51b815260206004820152602860248201527f43616e6e6f742077697468647261772045746865722077697468207468697320604482015267333ab731ba34b7b760c11b606482015260840161018b565b6001600160a01b0382165f908152600260209081526040808320338452909152902054811115610f585760405162461bcd60e51b8152602060048201526014602482015273496e73756666696369656e742062616c616e636560601b604482015260640161018b565b6001600160a01b0382165f90815260026020908152604080832033845290915281208054839290610f8a9084906114f4565b909155505060405163a9059cbb60e01b8152336004820152602481018290526001600160a01b0383169063a9059cbb906044016020604051808303815f875af1158015610fd9573d5f803e3d5ffd5b505050506040513d601f19601f82011682018060405250810190610ffd91906114ce565b6110415760405162461bcd60e51b8152602060048201526015602482015274151bdad95b881d1c985b9cd9995c8819985a5b1959605a1b604482015260640161018b565b6001600160a01b0382165f908152600260209081526040808320338085529252918290205491517ff341246adaac6f497bc2a656f546ab9e182111d630394f0c57c710a59a2cb5679261071c928692909186916114a5565b60088181548110610561575f80fd5b60078181548110610561575f80fd5b6001600160a01b038083165f908152600260209081526040808320938516835292905220545b92915050565b5f6064600154856110f49190611547565b6110fe919061155e565b905061110a8185611492565b6001600160a01b0386165f9081526002602090815260408083203384529091528120805490919061113c9084906114f4565b90915550506001600160a01b038086165f908152600260209081526040808320938a1683529290529081208054869290611177908490611492565b90915550506001600160a01b038086165f9081526002602090815260408083208354909416835292905290812080548392906111b4908490611492565b90915550506001600160a01b038084165f908152600260209081526040808320938a16835292905290812080548492906111ef9084906114f4565b90915550506001600160a01b0383165f90815260026020908152604080832033845290915281208054849290611226908490611492565b9091555050604080518881526001600160a01b03888116602083015287811682840152606082018790528516608082015260a081018490523360c08201524260e082015290517f0dddf4182dc0fc1a311cb75f049c97403c6b8a99cf6b2229a36e7c526acb3f81918190036101000190a150505050505050565b5f602082840312156112b0575f80fd5b5035919050565b80356001600160a01b03811681146112cd575f80fd5b919050565b5f80604083850312156112e3575f80fd5b6112ec836112b7565b946020939093013593505050565b5f806040838503121561130b575f80fd5b611314836112b7565b9150611322602084016112b7565b90509250929050565b602080825282518282018190525f9190848201906040850190845b8181101561136257835183529284019291840191600101611346565b50909695505050505050565b602080825282518282018190525f919060409081850190868401855b828110156113f257815180518552868101516001600160a01b039081168887015286820151811687870152606080830151908701526080808301519091169086015260a0808201519086015260c0908101519085015260e0909301929085019060010161138a565b5091979650505050505050565b5f805f8060808587031215611412575f80fd5b61141b856112b7565b935060208501359250611430604086016112b7565b9396929550929360600135925050565b9687526001600160a01b03958616602088015293851660408701526060860192909252909216608084015260a083019190915260c082015260e00190565b634e487b7160e01b5f52601160045260245ffd5b808201808211156110dd576110dd61147e565b6001600160a01b0394851681529290931660208301526040820152606081019190915260800190565b5f602082840312156114de575f80fd5b815180151581146114ed575f80fd5b9392505050565b818103818111156110dd576110dd61147e565b634e487b7160e01b5f52604160045260245ffd5b634e487b7160e01b5f52603260045260245ffd5b5f600182016115405761154061147e565b5060010190565b80820281158282048414176110dd576110dd61147e565b5f8261157857634e487b7160e01b5f52601260045260245ffd5b50049056feac33ff75c19e70fe83507db0d683fd3465c996598dc972688b7ace676c89077ba26469706673582212206991fc0af6bfedaed10793e39f2b9d075769facfe7f3a4646252c827a0590a2d64736f6c63430008150033",
  "immutableReferences": {},
  "source": "// SPDX-License-Identifier: UNLICENSED\r\n\r\npragma solidity ^0.8.21;\r\n\r\nimport \"./Token.sol\";\r\n\r\ncontract Exchange {\r\n    // Variables\r\n    address public feeAccount;\r\n    uint256 public feePercent;\r\n    address constant ETHER = address(0); // Represents Ether as a token in the exchange\r\n    mapping(address => mapping(address => uint256)) public tokens; // Tracks token balances\r\n    mapping(uint256 => _Order) public orders;\r\n    uint256 public orderCount;\r\n    mapping(uint256 => bool) public orderCancelled;\r\n    mapping(uint256 => bool) public orderFilled;\r\n\r\n    // New arrays to track order status\r\n    uint256[] public allOrders;       // Tracks all order IDs\r\n    uint256[] public cancelledOrders; // Tracks cancelled orders\r\n    uint256[] public filledOrders;    // Tracks filled orders\r\n\r\n    // Events\r\n    event Deposit(address token, address user, uint256 amount, uint256 balance);\r\n    event Withdraw(\r\n        address token,\r\n        address user,\r\n        uint256 amount,\r\n        uint256 balance\r\n    );\r\n    event Order(\r\n        uint256 id,\r\n        address user,\r\n        address tokenGet,\r\n        uint256 amountGet,\r\n        address tokenGive,\r\n        uint256 amountGive,\r\n        uint256 timeStamp\r\n    );\r\n    event Cancel(\r\n        uint256 id,\r\n        address user,\r\n        address tokenGet,\r\n        uint256 amountGet,\r\n        address tokenGive,\r\n        uint256 amountGive,\r\n        uint256 timeStamp\r\n    );\r\n    event Trade(\r\n        uint256 id,\r\n        address user,\r\n        address tokenGet,\r\n        uint256 amountGet,\r\n        address tokenGive,\r\n        uint256 amountGive,\r\n        address userFill,\r\n        uint256 timeStamp\r\n    );\r\n\r\n    // Structs\r\n    struct _Order {\r\n        uint256 id;\r\n        address user;\r\n        address tokenGet;\r\n        uint256 amountGet;\r\n        address tokenGive;\r\n        uint256 amountGive;\r\n        uint256 timeStamp;\r\n    }\r\n\r\n    uint256 public nextOrderId; // To track the next order ID\r\n\r\n    constructor(address _feeAccount, uint256 _feePercent) {\r\n        feeAccount = _feeAccount;\r\n        feePercent = _feePercent;\r\n    }\r\n\r\n    // Handle direct Ether transfers\r\n    receive() external payable {\r\n        depositEther(); // Deposit Ether directly if sent to the contract\r\n    }\r\n\r\n    // Fallback function to handle any calls with invalid data\r\n    fallback() external payable {\r\n        revert(\"Fallback function called\"); // Reverts any call with data\r\n    }\r\n\r\n    // Deposit Ether into the exchange\r\n    function depositEther() public payable {\r\n        tokens[ETHER][msg.sender] += msg.value; // Add Ether to the user's balance\r\n        emit Deposit(ETHER, msg.sender, msg.value, tokens[ETHER][msg.sender]);\r\n    }\r\n\r\n    // Withdraw Ether from the exchange\r\n    function withdrawEther(uint256 _amount) public {\r\n        require(tokens[ETHER][msg.sender] >= _amount, \"Insufficient balance\");\r\n        tokens[ETHER][msg.sender] -= _amount; // Deduct Ether from user's balance\r\n        payable(msg.sender).transfer(_amount); // Send Ether back to the user\r\n        emit Withdraw(ETHER, msg.sender, _amount, tokens[ETHER][msg.sender]);\r\n    }\r\n\r\n    // Deposit Tokens into the exchange\r\n    function depositToken(address _token, uint256 _amount) public {\r\n        require(_token != ETHER, \"Cannot deposit Ether in this function\");\r\n        require(\r\n            Token(_token).transferFrom(msg.sender, address(this), _amount),\r\n            \"Token transfer failed\"\r\n        );\r\n        tokens[_token][msg.sender] += _amount; // Update user's token balance\r\n        emit Deposit(_token, msg.sender, _amount, tokens[_token][msg.sender]);\r\n    }\r\n\r\n    // Withdraw Tokens from the exchange\r\n    function withdrawToken(address _token, uint256 _amount) public {\r\n        require(_token != ETHER, \"Cannot withdraw Ether with this function\");\r\n        require(tokens[_token][msg.sender] >= _amount, \"Insufficient balance\");\r\n        tokens[_token][msg.sender] -= _amount; // Deduct token balance\r\n        require(\r\n            Token(_token).transfer(msg.sender, _amount),\r\n            \"Token transfer failed\"\r\n        );\r\n        emit Withdraw(_token, msg.sender, _amount, tokens[_token][msg.sender]);\r\n    }\r\n\r\n    // Get the balance of a particular token for a user\r\n    function balanceOf(\r\n        address _token,\r\n        address _user\r\n    ) public view returns (uint256) {\r\n        return tokens[_token][_user];\r\n    }\r\n\r\n    // Make an order and add it to the allOrders array\r\n    // function makeOrder(\r\n    //     address _tokenGet,\r\n    //     uint256 _amountGet,\r\n    //     address _tokenGive,\r\n    //     uint256 _amountGive\r\n    // ) public {\r\n    //     orderCount++;\r\n    //     orders[orderCount] = _Order(\r\n    //         orderCount,\r\n    //         msg.sender,\r\n    //         _tokenGet,\r\n    //         _amountGet,\r\n    //         _tokenGive,\r\n    //         _amountGive,\r\n    //         block.timestamp\r\n    //     );\r\n    //     allOrders.push(orderCount); // Add order to allOrders array\r\n    //     emit Order(\r\n    //         orderCount,\r\n    //         msg.sender,\r\n    //         _tokenGet,\r\n    //         _amountGet,\r\n    //         _tokenGive,\r\n    //         _amountGive,\r\n    //         block.timestamp\r\n    //     );\r\n    // }\r\n\r\n    function makeOrder(address _tokenGet,uint256 _amountGet,address _tokenGive,uint256 _amountGive) public {\r\n        orderCount++;\r\n        allOrders.push(orderCount); // Add order to allOrders array\r\n        orders[orderCount] = _Order(\r\n            orderCount,\r\n            msg.sender,\r\n            _tokenGet,\r\n            _amountGet,\r\n            _tokenGive,\r\n            _amountGive,\r\n            block.timestamp\r\n        );\r\n        emit Order(\r\n            orderCount,\r\n            msg.sender,\r\n            _tokenGet,\r\n            _amountGet,\r\n            _tokenGive,\r\n            _amountGive,\r\n            block.timestamp\r\n        );\r\n    }\r\n\r\n\r\n    // Cancel order\r\n    function cancelOrder(uint256 _id) public {\r\n        _Order storage _order = orders[_id];\r\n        require(_order.id == _id, \"Invalid order ID\");\r\n        require(_order.user == msg.sender, \"Unauthorized cancellation\");\r\n        orderCancelled[_id] = true;\r\n        cancelledOrders.push(_id); // Add cancelled order to cancelledOrders array\r\n        emit Cancel(\r\n            _order.id,\r\n            msg.sender,\r\n            _order.tokenGet,\r\n            _order.amountGet,\r\n            _order.tokenGive,\r\n            _order.amountGive,\r\n            _order.timeStamp\r\n        );\r\n    }\r\n\r\n    // Fill order and update filledOrders array\r\n    function fillOrder(uint256 _id) public {\r\n        require(_id > 0 && _id <= orderCount, 'Invalid order ID');\r\n        require(!orderFilled[_id], 'Order already filled');\r\n        require(!orderCancelled[_id], 'Order already cancelled');\r\n        _Order storage _order = orders[_id];\r\n        _trade(_order.id, _order.user, _order.tokenGet, _order.amountGet, _order.tokenGive, _order.amountGive);\r\n        orderFilled[_order.id] = true;\r\n        filledOrders.push(_order.id); // Add filled order to filledOrders array\r\n    }\r\n\r\n    function _trade(uint256 _orderId, address _user, address _tokenGet, uint256 _amountGet, address _tokenGive, uint256 _amountGive) internal {\r\n        // Fee paid by the user that fills the order, a.k.a. msg.sender.\r\n        uint256 _feeAmount = _amountGet * feePercent / 100;\r\n\r\n        tokens[_tokenGet][msg.sender] -= _amountGet + _feeAmount;\r\n        tokens[_tokenGet][_user] += _amountGet;\r\n        tokens[_tokenGet][feeAccount] += _feeAmount;\r\n        tokens[_tokenGive][_user] -= _amountGive;\r\n        tokens[_tokenGive][msg.sender] += _amountGive;\r\n\r\n        emit Trade(_orderId, _user, _tokenGet, _amountGet, _tokenGive, _amountGive, msg.sender, block.timestamp);\r\n    }\r\n\r\n    // Getters for tracking orders\r\n    function getAllOrders() public view returns (_Order[] memory) {\r\n        _Order[] memory ordersArray = new _Order[](orderCount);\r\n        for (uint256 i = 0; i < orderCount; i++) {\r\n            ordersArray[i] = orders[i + 1]; // Assuming the order IDs start from 1\r\n        }\r\n        return ordersArray;\r\n    }\r\n\r\n\r\n    function getCancelledOrders() public view returns (uint256[] memory) {\r\n        return cancelledOrders;\r\n    }\r\n\r\n    function getFilledOrders() public view returns (uint256[] memory) {\r\n        return filledOrders;\r\n    }\r\n}\r\n",
  "sourcePath": "/mnt/c/pr0/blockchain-developer-bootcamp/src/contracts/Exchange.sol",
  "compiler": {
    "name": "solc",
    "version": "0.8.21+commit.d9974bed.Emscripten.clang"
  },
  "schemaVersion": "3.4.16",
  "updatedAt": "2024-12-31T04:22:54.312Z",
  "networkType": "ethereum",
  "devdoc": {
    "kind": "dev",
    "methods": {},
    "version": 1
  },
  "userdoc": {
    "kind": "user",
    "methods": {},
    "version": 1
  }
}