{
  "contractName": "Exchange",
  "abi": [
    {
      "inputs": [
        {
          "internalType": "address",
          "name": "_feeAccount",
          "type": "address"
        },
        {
          "internalType": "uint256",
          "name": "_feePercent",
          "type": "uint256"
        }
      ],
      "stateMutability": "nonpayable",
      "type": "constructor"
    },
    {
      "anonymous": false,
      "inputs": [
        {
          "indexed": false,
          "internalType": "uint256",
          "name": "id",
          "type": "uint256"
        },
        {
          "indexed": false,
          "internalType": "address",
          "name": "user",
          "type": "address"
        },
        {
          "indexed": false,
          "internalType": "address",
          "name": "tokenGet",
          "type": "address"
        },
        {
          "indexed": false,
          "internalType": "uint256",
          "name": "amountGet",
          "type": "uint256"
        },
        {
          "indexed": false,
          "internalType": "address",
          "name": "tokenGive",
          "type": "address"
        },
        {
          "indexed": false,
          "internalType": "uint256",
          "name": "amountGive",
          "type": "uint256"
        },
        {
          "indexed": false,
          "internalType": "uint256",
          "name": "timeStamp",
          "type": "uint256"
        }
      ],
      "name": "Cancel",
      "type": "event"
    },
    {
      "anonymous": false,
      "inputs": [
        {
          "indexed": false,
          "internalType": "address",
          "name": "token",
          "type": "address"
        },
        {
          "indexed": false,
          "internalType": "address",
          "name": "user",
          "type": "address"
        },
        {
          "indexed": false,
          "internalType": "uint256",
          "name": "amount",
          "type": "uint256"
        },
        {
          "indexed": false,
          "internalType": "uint256",
          "name": "balance",
          "type": "uint256"
        }
      ],
      "name": "Deposit",
      "type": "event"
    },
    {
      "anonymous": false,
      "inputs": [
        {
          "indexed": false,
          "internalType": "uint256",
          "name": "id",
          "type": "uint256"
        },
        {
          "indexed": false,
          "internalType": "address",
          "name": "user",
          "type": "address"
        },
        {
          "indexed": false,
          "internalType": "address",
          "name": "tokenGet",
          "type": "address"
        },
        {
          "indexed": false,
          "internalType": "uint256",
          "name": "amountGet",
          "type": "uint256"
        },
        {
          "indexed": false,
          "internalType": "address",
          "name": "tokenGive",
          "type": "address"
        },
        {
          "indexed": false,
          "internalType": "uint256",
          "name": "amountGive",
          "type": "uint256"
        },
        {
          "indexed": false,
          "internalType": "uint256",
          "name": "timeStamp",
          "type": "uint256"
        }
      ],
      "name": "Order",
      "type": "event"
    },
    {
      "anonymous": false,
      "inputs": [
        {
          "indexed": false,
          "internalType": "uint256",
          "name": "id",
          "type": "uint256"
        },
        {
          "indexed": false,
          "internalType": "address",
          "name": "user",
          "type": "address"
        },
        {
          "indexed": false,
          "internalType": "address",
          "name": "tokenGet",
          "type": "address"
        },
        {
          "indexed": false,
          "internalType": "uint256",
          "name": "amountGet",
          "type": "uint256"
        },
        {
          "indexed": false,
          "internalType": "address",
          "name": "tokenGive",
          "type": "address"
        },
        {
          "indexed": false,
          "internalType": "uint256",
          "name": "amountGive",
          "type": "uint256"
        },
        {
          "indexed": false,
          "internalType": "address",
          "name": "userFill",
          "type": "address"
        },
        {
          "indexed": false,
          "internalType": "uint256",
          "name": "timeStamp",
          "type": "uint256"
        }
      ],
      "name": "Trade",
      "type": "event"
    },
    {
      "anonymous": false,
      "inputs": [
        {
          "indexed": false,
          "internalType": "address",
          "name": "token",
          "type": "address"
        },
        {
          "indexed": false,
          "internalType": "address",
          "name": "user",
          "type": "address"
        },
        {
          "indexed": false,
          "internalType": "uint256",
          "name": "amount",
          "type": "uint256"
        },
        {
          "indexed": false,
          "internalType": "uint256",
          "name": "balance",
          "type": "uint256"
        }
      ],
      "name": "Withdraw",
      "type": "event"
    },
    {
      "stateMutability": "payable",
      "type": "fallback",
      "payable": true
    },
    {
      "inputs": [
        {
          "internalType": "uint256",
          "name": "",
          "type": "uint256"
        }
      ],
      "name": "allOrders",
      "outputs": [
        {
          "internalType": "uint256",
          "name": "",
          "type": "uint256"
        }
      ],
      "stateMutability": "view",
      "type": "function",
      "constant": true
    },
    {
      "inputs": [
        {
          "internalType": "uint256",
          "name": "",
          "type": "uint256"
        }
      ],
      "name": "cancelledOrders",
      "outputs": [
        {
          "internalType": "uint256",
          "name": "",
          "type": "uint256"
        }
      ],
      "stateMutability": "view",
      "type": "function",
      "constant": true
    },
    {
      "inputs": [],
      "name": "feeAccount",
      "outputs": [
        {
          "internalType": "address",
          "name": "",
          "type": "address"
        }
      ],
      "stateMutability": "view",
      "type": "function",
      "constant": true
    },
    {
      "inputs": [],
      "name": "feePercent",
      "outputs": [
        {
          "internalType": "uint256",
          "name": "",
          "type": "uint256"
        }
      ],
      "stateMutability": "view",
      "type": "function",
      "constant": true
    },
    {
      "inputs": [
        {
          "internalType": "uint256",
          "name": "",
          "type": "uint256"
        }
      ],
      "name": "filledOrders",
      "outputs": [
        {
          "internalType": "uint256",
          "name": "",
          "type": "uint256"
        }
      ],
      "stateMutability": "view",
      "type": "function",
      "constant": true
    },
    {
      "inputs": [],
      "name": "nextOrderId",
      "outputs": [
        {
          "internalType": "uint256",
          "name": "",
          "type": "uint256"
        }
      ],
      "stateMutability": "view",
      "type": "function",
      "constant": true
    },
    {
      "inputs": [
        {
          "internalType": "uint256",
          "name": "",
          "type": "uint256"
        }
      ],
      "name": "orderCancelled",
      "outputs": [
        {
          "internalType": "bool",
          "name": "",
          "type": "bool"
        }
      ],
      "stateMutability": "view",
      "type": "function",
      "constant": true
    },
    {
      "inputs": [],
      "name": "orderCount",
      "outputs": [
        {
          "internalType": "uint256",
          "name": "",
          "type": "uint256"
        }
      ],
      "stateMutability": "view",
      "type": "function",
      "constant": true
    },
    {
      "inputs": [
        {
          "internalType": "uint256",
          "name": "",
          "type": "uint256"
        }
      ],
      "name": "orderFilled",
      "outputs": [
        {
          "internalType": "bool",
          "name": "",
          "type": "bool"
        }
      ],
      "stateMutability": "view",
      "type": "function",
      "constant": true
    },
    {
      "inputs": [
        {
          "internalType": "uint256",
          "name": "",
          "type": "uint256"
        }
      ],
      "name": "orders",
      "outputs": [
        {
          "internalType": "uint256",
          "name": "id",
          "type": "uint256"
        },
        {
          "internalType": "address",
          "name": "user",
          "type": "address"
        },
        {
          "internalType": "address",
          "name": "tokenGet",
          "type": "address"
        },
        {
          "internalType": "uint256",
          "name": "amountGet",
          "type": "uint256"
        },
        {
          "internalType": "address",
          "name": "tokenGive",
          "type": "address"
        },
        {
          "internalType": "uint256",
          "name": "amountGive",
          "type": "uint256"
        },
        {
          "internalType": "uint256",
          "name": "timeStamp",
          "type": "uint256"
        }
      ],
      "stateMutability": "view",
      "type": "function",
      "constant": true
    },
    {
      "inputs": [
        {
          "internalType": "address",
          "name": "",
          "type": "address"
        },
        {
          "internalType": "address",
          "name": "",
          "type": "address"
        }
      ],
      "name": "tokens",
      "outputs": [
        {
          "internalType": "uint256",
          "name": "",
          "type": "uint256"
        }
      ],
      "stateMutability": "view",
      "type": "function",
      "constant": true
    },
    {
      "stateMutability": "payable",
      "type": "receive",
      "payable": true
    },
    {
      "inputs": [],
      "name": "depositEther",
      "outputs": [],
      "stateMutability": "payable",
      "type": "function",
      "payable": true
    },
    {
      "inputs": [
        {
          "internalType": "uint256",
          "name": "_amount",
          "type": "uint256"
        }
      ],
      "name": "withdrawEther",
      "outputs": [],
      "stateMutability": "nonpayable",
      "type": "function"
    },
    {
      "inputs": [
        {
          "internalType": "address",
          "name": "_token",
          "type": "address"
        },
        {
          "internalType": "uint256",
          "name": "_amount",
          "type": "uint256"
        }
      ],
      "name": "depositToken",
      "outputs": [],
      "stateMutability": "nonpayable",
      "type": "function"
    },
    {
      "inputs": [
        {
          "internalType": "address",
          "name": "_token",
          "type": "address"
        },
        {
          "internalType": "uint256",
          "name": "_amount",
          "type": "uint256"
        }
      ],
      "name": "withdrawToken",
      "outputs": [],
      "stateMutability": "nonpayable",
      "type": "function"
    },
    {
      "inputs": [
        {
          "internalType": "address",
          "name": "_token",
          "type": "address"
        },
        {
          "internalType": "address",
          "name": "_user",
          "type": "address"
        }
      ],
      "name": "balanceOf",
      "outputs": [
        {
          "internalType": "uint256",
          "name": "",
          "type": "uint256"
        }
      ],
      "stateMutability": "view",
      "type": "function",
      "constant": true
    },
    {
      "inputs": [
        {
          "internalType": "address",
          "name": "_tokenGet",
          "type": "address"
        },
        {
          "internalType": "uint256",
          "name": "_amountGet",
          "type": "uint256"
        },
        {
          "internalType": "address",
          "name": "_tokenGive",
          "type": "address"
        },
        {
          "internalType": "uint256",
          "name": "_amountGive",
          "type": "uint256"
        }
      ],
      "name": "makeOrder",
      "outputs": [],
      "stateMutability": "nonpayable",
      "type": "function"
    },
    {
      "inputs": [
        {
          "internalType": "uint256",
          "name": "_id",
          "type": "uint256"
        }
      ],
      "name": "cancelOrder",
      "outputs": [],
      "stateMutability": "nonpayable",
      "type": "function"
    },
    {
      "inputs": [
        {
          "internalType": "uint256",
          "name": "_id",
          "type": "uint256"
        }
      ],
      "name": "fillOrder",
      "outputs": [],
      "stateMutability": "nonpayable",
      "type": "function"
    },
    {
      "inputs": [],
      "name": "getAllOrders",
      "outputs": [
        {
          "components": [
            {
              "internalType": "uint256",
              "name": "id",
              "type": "uint256"
            },
            {
              "internalType": "address",
              "name": "user",
              "type": "address"
            },
            {
              "internalType": "address",
              "name": "tokenGet",
              "type": "address"
            },
            {
              "internalType": "uint256",
              "name": "amountGet",
              "type": "uint256"
            },
            {
              "internalType": "address",
              "name": "tokenGive",
              "type": "address"
            },
            {
              "internalType": "uint256",
              "name": "amountGive",
              "type": "uint256"
            },
            {
              "internalType": "uint256",
              "name": "timeStamp",
              "type": "uint256"
            }
          ],
          "internalType": "struct Exchange._Order[]",
          "name": "",
          "type": "tuple[]"
        }
      ],
      "stateMutability": "view",
      "type": "function",
      "constant": true
    },
    {
      "inputs": [],
      "name": "getCancelledOrders",
      "outputs": [
        {
          "internalType": "uint256[]",
          "name": "",
          "type": "uint256[]"
        }
      ],
      "stateMutability": "view",
      "type": "function",
      "constant": true
    },
    {
      "inputs": [],
      "name": "getFilledOrders",
      "outputs": [
        {
          "internalType": "uint256[]",
          "name": "",
          "type": "uint256[]"
        }
      ],
      "stateMutability": "view",
      "type": "function",
      "constant": true
    }
  ],
  "bytecode": "0x608060405234801561001057600080fd5b5060405161154338038061154383398101604081905261002f91610058565b600080546001600160a01b0319166001600160a01b039390931692909217909155600155610090565b6000806040838503121561006a578182fd5b82516001600160a01b0381168114610080578283fd5b6020939093015192949293505050565b6114a48061009f6000396000f3fe6080604052600436106101395760003560e01c80637b61a4fa116100ab5780639e281a981161006f5780639e281a981461034e578063a85c38ef1461036e578063bc15e601146103a1578063e9c18966146103c1578063eb5945e4146103e1578063f7888aec1461040157610148565b80637b61a4fa146102da5780637bea0d1c146102ef5780637fd6f15c1461031157806398ea5fca146103265780639a5c90aa1461032e57610148565b80634a93e0da116100fd5780634a93e0da14610209578063508493bc14610236578063514fcac71461025657806365e17c9d1461027657806367b830ad1461029857806377f379c7146102b857610148565b806316eea7d5146101695780632453ffa81461019f5780632a58b330146101b4578063338b5dea146101c95780633bed33ce146101e957610148565b3661014857610146610421565b005b60405162461bcd60e51b8152600401610160906112ef565b60405180910390fd5b34801561017557600080fd5b50610189610184366004611050565b610484565b60405161019691906113c3565b60405180910390f35b3480156101ab57600080fd5b506101896104a2565b3480156101c057600080fd5b506101896104a8565b3480156101d557600080fd5b506101466101e4366004610fba565b6104ae565b3480156101f557600080fd5b50610146610204366004611050565b6105de565b34801561021557600080fd5b50610229610224366004611050565b6106c3565b60405161019691906111d1565b34801561024257600080fd5b50610189610251366004610f86565b6106d8565b34801561026257600080fd5b50610146610271366004611050565b6106f5565b34801561028257600080fd5b5061028b6107fd565b6040516101969190611075565b3480156102a457600080fd5b506101466102b3366004611050565b61080c565b3480156102c457600080fd5b506102cd610937565b604051610196919061118d565b3480156102e657600080fd5b506102cd61098f565b3480156102fb57600080fd5b506103046109e5565b60405161019691906110ef565b34801561031d57600080fd5b50610189610ae0565b610146610421565b34801561033a57600080fd5b50610146610349366004610fe4565b610ae6565b34801561035a57600080fd5b50610146610369366004610fba565b610c19565b34801561037a57600080fd5b5061038e610389366004611050565b610d95565b60405161019697969594939291906113cc565b3480156103ad57600080fd5b506101896103bc366004611050565b610de1565b3480156103cd57600080fd5b506102296103dc366004611050565b610dee565b3480156103ed57600080fd5b506101896103fc366004611050565b610e03565b34801561040d57600080fd5b5061018961041c366004610f86565b610e10565b33600081815260008051602061144f83398151915260205260408082208054349081019182905591517fdcbc1c05240f31ff3ad067ef1ee35ce4997762752e3a095284754544f4c709d79461047a9493909290916110c6565b60405180910390a1565b6009818154811061049157fe5b600091825260209091200154905081565b60045481565b600a5481565b6001600160a01b0382166104d45760405162461bcd60e51b81526004016101609061137e565b6040516323b872dd60e01b81526001600160a01b038316906323b872dd9061050490339030908690600401611089565b602060405180830381600087803b15801561051e57600080fd5b505af1158015610532573d6000803e3d6000fd5b505050506040513d601f19601f820116820180604052508101906105569190611029565b6105725760405162461bcd60e51b815260040161016090611289565b6001600160a01b038216600090815260026020908152604080832033808552925291829020805484019081905591517fdcbc1c05240f31ff3ad067ef1ee35ce4997762752e3a095284754544f4c709d7926105d2928692909186916110c6565b60405180910390a15050565b33600090815260008051602061144f833981519152602052604090205481111561061a5760405162461bcd60e51b81526004016101609061125b565b33600081815260008051602061144f8339815191526020526040808220805485900390555183156108fc0291849190818181858888f19350505050158015610666573d6000803e3d6000fd5b5033600081815260008051602061144f83398151915260205260408082205490517ff341246adaac6f497bc2a656f546ab9e182111d630394f0c57c710a59a2cb567936106b8939290918691906110c6565b60405180910390a150565b60066020526000908152604090205460ff1681565b600260209081526000928352604080842090915290825290205481565b6000818152600360205260409020805482146107235760405162461bcd60e51b815260040161016090611354565b60018101546001600160a01b0316331461074f5760405162461bcd60e51b815260040161016090611224565b6000828152600560208190526040808320805460ff191660019081179091556008805491820181559093527ff3f7a9fe364faab93b216da50a3214154f22a0a2b415b23a84c8169e8b636ee3909201849055825460028401546003850154600486015493860154600687015495517f77de1da0be5f2d3b110d05c6694e5c4ff2d9da7cd23d84353ecf78c7b5acec61966105d29633956001600160a01b0390811695949116929091906113cc565b6000546001600160a01b031681565b60008111801561081e57506004548111155b61083a5760405162461bcd60e51b815260040161016090611354565b60008181526006602052604090205460ff16156108695760405162461bcd60e51b815260040161016090611326565b60008181526005602052604090205460ff16156108985760405162461bcd60e51b8152600401610160906112b8565b6000818152600360208190526040909120805460018201546002830154938301546004840154600585015494956108e3956001600160a01b0394851694918216939290911690610e3d565b80546000908152600660205260408120805460ff1916600190811790915591546009805493840181559091527f6e1540171b6c0c960b71a7020d9f60077f6af931a8bbf590da0223dacf75c7af9091015550565b6060600980548060200260200160405190810160405280929190818152602001828054801561098557602002820191906000526020600020905b815481526020019060010190808311610971575b5050505050905090565b606060088054806020026020016040519081016040528092919081815260200182805480156109855760200282019190600052602060002090815481526020019060010190808311610971575050505050905090565b60608060045467ffffffffffffffff81118015610a0157600080fd5b50604051908082528060200260200182016040528015610a3b57816020015b610a28610f17565b815260200190600190039081610a205790505b50905060005b600454811015610ada576001808201600090815260036020818152604092839020835160e08101855281548152948101546001600160a01b039081169286019290925260028101548216938501939093529082015460608401526004820154166080830152600581015460a08301526006015460c08201528251839083908110610ac757fe5b6020908102919091010152600101610a41565b50905090565b60015481565b600480546001908101808355600780548084019091557fa66cc928b5edb82af9bd49922954155ab7b0942694bea4ce44661d9a8736c688018190556040805160e0810182528281523360208083018281526001600160a01b038c8116858701908152606086018d81528c83166080880190815260a088018d81524260c08a0181815260009c8d526003988990529b8b902099518a5595519b890180546001600160a01b03199081169d87169d909d17905592516002890180548d169186169190911790559051948701949094559251858a0180549099169116179096555160058301559251600690910155925492517f9d33853d43e3607b4cc01fdc78338ff2dca6fef7db9232dae6d3eb55fbc3b10993610c0b9390929189918991899189916113cc565b60405180910390a150505050565b6001600160a01b038216610c3f5760405162461bcd60e51b8152600401610160906111dc565b6001600160a01b0382166000908152600260209081526040808320338452909152902054811115610c825760405162461bcd60e51b81526004016101609061125b565b6001600160a01b03821660008181526002602090815260408083203380855292529182902080548590039055905163a9059cbb60e01b815263a9059cbb91610cce9185906004016110ad565b602060405180830381600087803b158015610ce857600080fd5b505af1158015610cfc573d6000803e3d6000fd5b505050506040513d601f19601f82011682018060405250810190610d209190611029565b610d3c5760405162461bcd60e51b815260040161016090611289565b6001600160a01b0382166000908152600260209081526040808320338085529252918290205491517ff341246adaac6f497bc2a656f546ab9e182111d630394f0c57c710a59a2cb567926105d2928692909186916110c6565b6003602081905260009182526040909120805460018201546002830154938301546004840154600585015460069095015493956001600160a01b03938416959084169492939091169187565b6008818154811061049157fe5b60056020526000908152604090205460ff1681565b6007818154811061049157fe5b6001600160a01b038083166000908152600260209081526040808320938516835292905220545b92915050565b60006064600154850281610e4d57fe5b6001600160a01b038781166000908152600260208181526040808420338086529083528185208054989097048c81019098039096558c851680855281852080548d019055845486168552818520805489019055948a1684529181528183209383529290925281812080548790039055828152819020805486019055519192507f0dddf4182dc0fc1a311cb75f049c97403c6b8a99cf6b2229a36e7c526acb3f8191610f06918a918a918a918a918a918a9190429061140a565b60405180910390a150505050505050565b6040518060e001604052806000815260200160006001600160a01b0316815260200160006001600160a01b031681526020016000815260200160006001600160a01b0316815260200160008152602001600081525090565b80356001600160a01b0381168114610e3757600080fd5b60008060408385031215610f98578182fd5b610fa28484610f6f565b9150610fb18460208501610f6f565b90509250929050565b60008060408385031215610fcc578182fd5b610fd68484610f6f565b946020939093013593505050565b60008060008060808587031215610ff9578182fd5b6110038686610f6f565b9350602085013592506110198660408701610f6f565b9396929550929360600135925050565b60006020828403121561103a578081fd5b81518015158114611049578182fd5b9392505050565b600060208284031215611061578081fd5b5035919050565b6001600160a01b03169052565b6001600160a01b0391909116815260200190565b6001600160a01b039384168152919092166020820152604081019190915260600190565b6001600160a01b03929092168252602082015260400190565b6001600160a01b0394851681529290931660208301526040820152606081019190915260800190565b602080825282518282018190526000919060409081850190868401855b82811015611180578151805185528681015161112a88870182611068565b508581015161113b87870182611068565b506060818101519086015260808082015161115882880182611068565b505060a0818101519086015260c0908101519085015260e0909301929085019060010161110c565b5091979650505050505050565b6020808252825182820181905260009190848201906040850190845b818110156111c5578351835292840192918401916001016111a9565b50909695505050505050565b901515815260200190565b60208082526028908201527f43616e6e6f742077697468647261772045746865722077697468207468697320604082015267333ab731ba34b7b760c11b606082015260800190565b60208082526019908201527f556e617574686f72697a65642063616e63656c6c6174696f6e00000000000000604082015260600190565b602080825260149082015273496e73756666696369656e742062616c616e636560601b604082015260600190565b602080825260159082015274151bdad95b881d1c985b9cd9995c8819985a5b1959605a1b604082015260600190565b60208082526017908201527f4f7264657220616c72656164792063616e63656c6c6564000000000000000000604082015260600190565b60208082526018908201527f46616c6c6261636b2066756e6374696f6e2063616c6c65640000000000000000604082015260600190565b60208082526014908201527313dc99195c88185b1c9958591e48199a5b1b195960621b604082015260600190565b60208082526010908201526f125b9d985b1a59081bdc99195c88125160821b604082015260600190565b60208082526025908201527f43616e6e6f74206465706f73697420457468657220696e20746869732066756e60408201526431ba34b7b760d91b606082015260800190565b90815260200190565b9687526001600160a01b03958616602088015293851660408701526060860192909252909216608084015260a083019190915260c082015260e00190565b9788526001600160a01b03968716602089015294861660408801526060870193909352908416608086015260a085015290911660c083015260e0820152610100019056feac33ff75c19e70fe83507db0d683fd3465c996598dc972688b7ace676c89077ba26469706673582212203fd0c5ff5c644db754e28a53fd12b10596c1f17054302b3704a6982bdb94059a64736f6c63430007010033",
  "immutableReferences": {},
  "source": "// SPDX-License-Identifier: UNLICENSED\r\n\r\npragma solidity ^0.7.1;\r\npragma experimental ABIEncoderV2;\r\n\r\nimport \"./Token.sol\";\r\n\r\ncontract Exchange {\r\n    // Variables\r\n    address public feeAccount;\r\n    uint256 public feePercent;\r\n    address constant ETHER = address(0); // Represents Ether as a token in the exchange\r\n    mapping(address => mapping(address => uint256)) public tokens; // Tracks token balances\r\n    mapping(uint256 => _Order) public orders;\r\n    uint256 public orderCount;\r\n    mapping(uint256 => bool) public orderCancelled;\r\n    mapping(uint256 => bool) public orderFilled;\r\n\r\n    // New arrays to track order status\r\n    uint256[] public allOrders;       // Tracks all order IDs\r\n    uint256[] public cancelledOrders; // Tracks cancelled orders\r\n    uint256[] public filledOrders;    // Tracks filled orders\r\n\r\n    // Events\r\n    event Deposit(address token, address user, uint256 amount, uint256 balance);\r\n    event Withdraw(\r\n        address token,\r\n        address user,\r\n        uint256 amount,\r\n        uint256 balance\r\n    );\r\n    event Order(\r\n        uint256 id,\r\n        address user,\r\n        address tokenGet,\r\n        uint256 amountGet,\r\n        address tokenGive,\r\n        uint256 amountGive,\r\n        uint256 timeStamp\r\n    );\r\n    event Cancel(\r\n        uint256 id,\r\n        address user,\r\n        address tokenGet,\r\n        uint256 amountGet,\r\n        address tokenGive,\r\n        uint256 amountGive,\r\n        uint256 timeStamp\r\n    );\r\n    event Trade(\r\n        uint256 id,\r\n        address user,\r\n        address tokenGet,\r\n        uint256 amountGet,\r\n        address tokenGive,\r\n        uint256 amountGive,\r\n        address userFill,\r\n        uint256 timeStamp\r\n    );\r\n\r\n    // Structs\r\n    struct _Order {\r\n        uint256 id;\r\n        address user;\r\n        address tokenGet;\r\n        uint256 amountGet;\r\n        address tokenGive;\r\n        uint256 amountGive;\r\n        uint256 timeStamp;\r\n    }\r\n\r\n    uint256 public nextOrderId; // To track the next order ID\r\n\r\n    constructor(address _feeAccount, uint256 _feePercent) {\r\n        feeAccount = _feeAccount;\r\n        feePercent = _feePercent;\r\n    }\r\n\r\n    // Handle direct Ether transfers\r\n    receive() external payable {\r\n        depositEther(); // Deposit Ether directly if sent to the contract\r\n    }\r\n\r\n    // Fallback function to handle any calls with invalid data\r\n    fallback() external payable {\r\n        revert(\"Fallback function called\"); // Reverts any call with data\r\n    }\r\n\r\n    // Deposit Ether into the exchange\r\n    function depositEther() public payable {\r\n        tokens[ETHER][msg.sender] += msg.value; // Add Ether to the user's balance\r\n        emit Deposit(ETHER, msg.sender, msg.value, tokens[ETHER][msg.sender]);\r\n    }\r\n\r\n    // Withdraw Ether from the exchange\r\n    function withdrawEther(uint256 _amount) public {\r\n        require(tokens[ETHER][msg.sender] >= _amount, \"Insufficient balance\");\r\n        tokens[ETHER][msg.sender] -= _amount; // Deduct Ether from user's balance\r\n        payable(msg.sender).transfer(_amount); // Send Ether back to the user\r\n        emit Withdraw(ETHER, msg.sender, _amount, tokens[ETHER][msg.sender]);\r\n    }\r\n\r\n    // Deposit Tokens into the exchange\r\n    function depositToken(address _token, uint256 _amount) public {\r\n        require(_token != ETHER, \"Cannot deposit Ether in this function\");\r\n        require(\r\n            Token(_token).transferFrom(msg.sender, address(this), _amount),\r\n            \"Token transfer failed\"\r\n        );\r\n        tokens[_token][msg.sender] += _amount; // Update user's token balance\r\n        emit Deposit(_token, msg.sender, _amount, tokens[_token][msg.sender]);\r\n    }\r\n\r\n    // Withdraw Tokens from the exchange\r\n    function withdrawToken(address _token, uint256 _amount) public {\r\n        require(_token != ETHER, \"Cannot withdraw Ether with this function\");\r\n        require(tokens[_token][msg.sender] >= _amount, \"Insufficient balance\");\r\n        tokens[_token][msg.sender] -= _amount; // Deduct token balance\r\n        require(\r\n            Token(_token).transfer(msg.sender, _amount),\r\n            \"Token transfer failed\"\r\n        );\r\n        emit Withdraw(_token, msg.sender, _amount, tokens[_token][msg.sender]);\r\n    }\r\n\r\n    // Get the balance of a particular token for a user\r\n    function balanceOf(\r\n        address _token,\r\n        address _user\r\n    ) public view returns (uint256) {\r\n        return tokens[_token][_user];\r\n    }\r\n\r\n    // Make an order and add it to the allOrders array\r\n    // function makeOrder(\r\n    //     address _tokenGet,\r\n    //     uint256 _amountGet,\r\n    //     address _tokenGive,\r\n    //     uint256 _amountGive\r\n    // ) public {\r\n    //     orderCount++;\r\n    //     orders[orderCount] = _Order(\r\n    //         orderCount,\r\n    //         msg.sender,\r\n    //         _tokenGet,\r\n    //         _amountGet,\r\n    //         _tokenGive,\r\n    //         _amountGive,\r\n    //         block.timestamp\r\n    //     );\r\n    //     allOrders.push(orderCount); // Add order to allOrders array\r\n    //     emit Order(\r\n    //         orderCount,\r\n    //         msg.sender,\r\n    //         _tokenGet,\r\n    //         _amountGet,\r\n    //         _tokenGive,\r\n    //         _amountGive,\r\n    //         block.timestamp\r\n    //     );\r\n    // }\r\n\r\n    function makeOrder(address _tokenGet,uint256 _amountGet,address _tokenGive,uint256 _amountGive) public {\r\n        orderCount++;\r\n        allOrders.push(orderCount); // Add order to allOrders array\r\n        orders[orderCount] = _Order(\r\n            orderCount,\r\n            msg.sender,\r\n            _tokenGet,\r\n            _amountGet,\r\n            _tokenGive,\r\n            _amountGive,\r\n            block.timestamp\r\n        );\r\n        emit Order(\r\n            orderCount,\r\n            msg.sender,\r\n            _tokenGet,\r\n            _amountGet,\r\n            _tokenGive,\r\n            _amountGive,\r\n            block.timestamp\r\n        );\r\n    }\r\n\r\n\r\n    // Cancel order\r\n    function cancelOrder(uint256 _id) public {\r\n        _Order storage _order = orders[_id];\r\n        require(_order.id == _id, \"Invalid order ID\");\r\n        require(_order.user == msg.sender, \"Unauthorized cancellation\");\r\n        orderCancelled[_id] = true;\r\n        cancelledOrders.push(_id); // Add cancelled order to cancelledOrders array\r\n        emit Cancel(\r\n            _order.id,\r\n            msg.sender,\r\n            _order.tokenGet,\r\n            _order.amountGet,\r\n            _order.tokenGive,\r\n            _order.amountGive,\r\n            _order.timeStamp\r\n        );\r\n    }\r\n\r\n    // Fill order and update filledOrders array\r\n    function fillOrder(uint256 _id) public {\r\n        require(_id > 0 && _id <= orderCount, 'Invalid order ID');\r\n        require(!orderFilled[_id], 'Order already filled');\r\n        require(!orderCancelled[_id], 'Order already cancelled');\r\n        _Order storage _order = orders[_id];\r\n        _trade(_order.id, _order.user, _order.tokenGet, _order.amountGet, _order.tokenGive, _order.amountGive);\r\n        orderFilled[_order.id] = true;\r\n        filledOrders.push(_order.id); // Add filled order to filledOrders array\r\n    }\r\n\r\n    function _trade(uint256 _orderId, address _user, address _tokenGet, uint256 _amountGet, address _tokenGive, uint256 _amountGive) internal {\r\n        // Fee paid by the user that fills the order, a.k.a. msg.sender.\r\n        uint256 _feeAmount = _amountGet * feePercent / 100;\r\n\r\n        tokens[_tokenGet][msg.sender] -= _amountGet + _feeAmount;\r\n        tokens[_tokenGet][_user] += _amountGet;\r\n        tokens[_tokenGet][feeAccount] += _feeAmount;\r\n        tokens[_tokenGive][_user] -= _amountGive;\r\n        tokens[_tokenGive][msg.sender] += _amountGive;\r\n\r\n        emit Trade(_orderId, _user, _tokenGet, _amountGet, _tokenGive, _amountGive, msg.sender, block.timestamp);\r\n    }\r\n\r\n    // Getters for tracking orders\r\n    function getAllOrders() public view returns (_Order[] memory) {\r\n        _Order[] memory ordersArray = new _Order[](orderCount);\r\n        for (uint256 i = 0; i < orderCount; i++) {\r\n            ordersArray[i] = orders[i + 1]; // Assuming the order IDs start from 1\r\n        }\r\n        return ordersArray;\r\n    }\r\n\r\n\r\n    function getCancelledOrders() public view returns (uint256[] memory) {\r\n        return cancelledOrders;\r\n    }\r\n\r\n    function getFilledOrders() public view returns (uint256[] memory) {\r\n        return filledOrders;\r\n    }\r\n}\r\n",
  "sourcePath": "D:\\Blockchain Development\\Bootcamp\\pr0\\blockchain-developer-bootcamp\\src\\contracts\\Exchange.sol",
  "compiler": {
    "name": "solc",
    "version": "0.7.1+commit.f4a555be.Emscripten.clang"
  },
  "schemaVersion": "3.4.16",
  "updatedAt": "2025-05-18T16:03:43.571Z",
  "networkType": "ethereum",
  "devdoc": {
    "kind": "dev",
    "methods": {},
    "version": 1
  },
  "userdoc": {
    "kind": "user",
    "methods": {},
    "version": 1
  }
}