{
  "contractName": "Exchange",
  "abi": [
    {
      "inputs": [
        {
          "internalType": "address",
          "name": "_feeAccount",
          "type": "address"
        },
        {
          "internalType": "uint256",
          "name": "_feePercent",
          "type": "uint256"
        }
      ],
      "stateMutability": "nonpayable",
      "type": "constructor"
    },
    {
      "anonymous": false,
      "inputs": [
        {
          "indexed": false,
          "internalType": "uint256",
          "name": "id",
          "type": "uint256"
        },
        {
          "indexed": false,
          "internalType": "address",
          "name": "user",
          "type": "address"
        },
        {
          "indexed": false,
          "internalType": "address",
          "name": "tokenGet",
          "type": "address"
        },
        {
          "indexed": false,
          "internalType": "uint256",
          "name": "amountGet",
          "type": "uint256"
        },
        {
          "indexed": false,
          "internalType": "address",
          "name": "tokenGive",
          "type": "address"
        },
        {
          "indexed": false,
          "internalType": "uint256",
          "name": "amountGive",
          "type": "uint256"
        },
        {
          "indexed": false,
          "internalType": "uint256",
          "name": "timeStamp",
          "type": "uint256"
        }
      ],
      "name": "Cancel",
      "type": "event"
    },
    {
      "anonymous": false,
      "inputs": [
        {
          "indexed": false,
          "internalType": "address",
          "name": "token",
          "type": "address"
        },
        {
          "indexed": false,
          "internalType": "address",
          "name": "user",
          "type": "address"
        },
        {
          "indexed": false,
          "internalType": "uint256",
          "name": "amount",
          "type": "uint256"
        },
        {
          "indexed": false,
          "internalType": "uint256",
          "name": "balance",
          "type": "uint256"
        }
      ],
      "name": "Deposit",
      "type": "event"
    },
    {
      "anonymous": false,
      "inputs": [
        {
          "indexed": false,
          "internalType": "uint256",
          "name": "id",
          "type": "uint256"
        },
        {
          "indexed": false,
          "internalType": "address",
          "name": "user",
          "type": "address"
        },
        {
          "indexed": false,
          "internalType": "address",
          "name": "tokenGet",
          "type": "address"
        },
        {
          "indexed": false,
          "internalType": "uint256",
          "name": "amountGet",
          "type": "uint256"
        },
        {
          "indexed": false,
          "internalType": "address",
          "name": "tokenGive",
          "type": "address"
        },
        {
          "indexed": false,
          "internalType": "uint256",
          "name": "amountGive",
          "type": "uint256"
        },
        {
          "indexed": false,
          "internalType": "uint256",
          "name": "timeStamp",
          "type": "uint256"
        }
      ],
      "name": "Order",
      "type": "event"
    },
    {
      "anonymous": false,
      "inputs": [
        {
          "indexed": false,
          "internalType": "uint256",
          "name": "id",
          "type": "uint256"
        },
        {
          "indexed": false,
          "internalType": "address",
          "name": "user",
          "type": "address"
        },
        {
          "indexed": false,
          "internalType": "address",
          "name": "tokenGet",
          "type": "address"
        },
        {
          "indexed": false,
          "internalType": "uint256",
          "name": "amountGet",
          "type": "uint256"
        },
        {
          "indexed": false,
          "internalType": "address",
          "name": "tokenGive",
          "type": "address"
        },
        {
          "indexed": false,
          "internalType": "uint256",
          "name": "amountGive",
          "type": "uint256"
        },
        {
          "indexed": false,
          "internalType": "address",
          "name": "userFill",
          "type": "address"
        },
        {
          "indexed": false,
          "internalType": "uint256",
          "name": "timeStamp",
          "type": "uint256"
        }
      ],
      "name": "Trade",
      "type": "event"
    },
    {
      "anonymous": false,
      "inputs": [
        {
          "indexed": false,
          "internalType": "address",
          "name": "token",
          "type": "address"
        },
        {
          "indexed": false,
          "internalType": "address",
          "name": "user",
          "type": "address"
        },
        {
          "indexed": false,
          "internalType": "uint256",
          "name": "amount",
          "type": "uint256"
        },
        {
          "indexed": false,
          "internalType": "uint256",
          "name": "balance",
          "type": "uint256"
        }
      ],
      "name": "Withdraw",
      "type": "event"
    },
    {
      "stateMutability": "payable",
      "type": "fallback",
      "payable": true
    },
    {
      "inputs": [],
      "name": "feeAccount",
      "outputs": [
        {
          "internalType": "address",
          "name": "",
          "type": "address"
        }
      ],
      "stateMutability": "view",
      "type": "function",
      "constant": true
    },
    {
      "inputs": [],
      "name": "feePercent",
      "outputs": [
        {
          "internalType": "uint256",
          "name": "",
          "type": "uint256"
        }
      ],
      "stateMutability": "view",
      "type": "function",
      "constant": true
    },
    {
      "inputs": [],
      "name": "nextOrderId",
      "outputs": [
        {
          "internalType": "uint256",
          "name": "",
          "type": "uint256"
        }
      ],
      "stateMutability": "view",
      "type": "function",
      "constant": true
    },
    {
      "inputs": [
        {
          "internalType": "uint256",
          "name": "",
          "type": "uint256"
        }
      ],
      "name": "orderCancelled",
      "outputs": [
        {
          "internalType": "bool",
          "name": "",
          "type": "bool"
        }
      ],
      "stateMutability": "view",
      "type": "function",
      "constant": true
    },
    {
      "inputs": [],
      "name": "orderCount",
      "outputs": [
        {
          "internalType": "uint256",
          "name": "",
          "type": "uint256"
        }
      ],
      "stateMutability": "view",
      "type": "function",
      "constant": true
    },
    {
      "inputs": [
        {
          "internalType": "uint256",
          "name": "",
          "type": "uint256"
        }
      ],
      "name": "orderFilled",
      "outputs": [
        {
          "internalType": "bool",
          "name": "",
          "type": "bool"
        }
      ],
      "stateMutability": "view",
      "type": "function",
      "constant": true
    },
    {
      "inputs": [
        {
          "internalType": "uint256",
          "name": "",
          "type": "uint256"
        }
      ],
      "name": "orders",
      "outputs": [
        {
          "internalType": "uint256",
          "name": "id",
          "type": "uint256"
        },
        {
          "internalType": "address",
          "name": "user",
          "type": "address"
        },
        {
          "internalType": "address",
          "name": "tokenGet",
          "type": "address"
        },
        {
          "internalType": "uint256",
          "name": "amountGet",
          "type": "uint256"
        },
        {
          "internalType": "address",
          "name": "tokenGive",
          "type": "address"
        },
        {
          "internalType": "uint256",
          "name": "amountGive",
          "type": "uint256"
        },
        {
          "internalType": "uint256",
          "name": "timeStamp",
          "type": "uint256"
        },
        {
          "internalType": "enum Exchange.Status",
          "name": "status",
          "type": "uint8"
        }
      ],
      "stateMutability": "view",
      "type": "function",
      "constant": true
    },
    {
      "inputs": [
        {
          "internalType": "address",
          "name": "",
          "type": "address"
        },
        {
          "internalType": "address",
          "name": "",
          "type": "address"
        }
      ],
      "name": "tokens",
      "outputs": [
        {
          "internalType": "uint256",
          "name": "",
          "type": "uint256"
        }
      ],
      "stateMutability": "view",
      "type": "function",
      "constant": true
    },
    {
      "stateMutability": "payable",
      "type": "receive",
      "payable": true
    },
    {
      "inputs": [],
      "name": "depositEther",
      "outputs": [],
      "stateMutability": "payable",
      "type": "function",
      "payable": true
    },
    {
      "inputs": [
        {
          "internalType": "uint256",
          "name": "_amount",
          "type": "uint256"
        }
      ],
      "name": "withdrawEther",
      "outputs": [],
      "stateMutability": "nonpayable",
      "type": "function"
    },
    {
      "inputs": [
        {
          "internalType": "address",
          "name": "_token",
          "type": "address"
        },
        {
          "internalType": "uint256",
          "name": "_amount",
          "type": "uint256"
        }
      ],
      "name": "depositToken",
      "outputs": [],
      "stateMutability": "nonpayable",
      "type": "function"
    },
    {
      "inputs": [
        {
          "internalType": "address",
          "name": "_token",
          "type": "address"
        },
        {
          "internalType": "uint256",
          "name": "_amount",
          "type": "uint256"
        }
      ],
      "name": "withdrawToken",
      "outputs": [],
      "stateMutability": "nonpayable",
      "type": "function"
    },
    {
      "inputs": [
        {
          "internalType": "address",
          "name": "_token",
          "type": "address"
        },
        {
          "internalType": "address",
          "name": "_user",
          "type": "address"
        }
      ],
      "name": "balanceOf",
      "outputs": [
        {
          "internalType": "uint256",
          "name": "",
          "type": "uint256"
        }
      ],
      "stateMutability": "view",
      "type": "function",
      "constant": true
    },
    {
      "inputs": [
        {
          "internalType": "address",
          "name": "_tokenGet",
          "type": "address"
        },
        {
          "internalType": "uint256",
          "name": "_amountGet",
          "type": "uint256"
        },
        {
          "internalType": "address",
          "name": "_tokenGive",
          "type": "address"
        },
        {
          "internalType": "uint256",
          "name": "_amountGive",
          "type": "uint256"
        }
      ],
      "name": "makeOrder",
      "outputs": [],
      "stateMutability": "nonpayable",
      "type": "function"
    },
    {
      "inputs": [
        {
          "internalType": "uint256",
          "name": "_id",
          "type": "uint256"
        }
      ],
      "name": "cancelOrder",
      "outputs": [],
      "stateMutability": "nonpayable",
      "type": "function"
    },
    {
      "inputs": [
        {
          "internalType": "uint256",
          "name": "_id",
          "type": "uint256"
        }
      ],
      "name": "fillOrder",
      "outputs": [],
      "stateMutability": "nonpayable",
      "type": "function"
    }
  ],
  "bytecode": "0x608060405234801561000f575f80fd5b5060405161129138038061129183398101604081905261002e91610056565b5f80546001600160a01b0319166001600160a01b03939093169290921790915560015561008d565b5f8060408385031215610067575f80fd5b82516001600160a01b038116811461007d575f80fd5b6020939093015192949293505050565b6111f78061009a5f395ff3fe6080604052600436106100f6575f3560e01c806367b830ad116100895780639e281a98116100585780639e281a98146102f1578063a85c38ef14610310578063e9c1896614610394578063f7888aec146103c257610105565b806367b830ad146102965780637fd6f15c146102b557806398ea5fca146102ca5780639a5c90aa146102d257610105565b80634a93e0da116100c55780634a93e0da146101cd578063508493bc1461020b578063514fcac71461024157806365e17c9d1461026057610105565b80632453ffa8146101525780632a58b3301461017a578063338b5dea1461018f5780633bed33ce146101ae57610105565b36610105576101036103e1565b005b60405162461bcd60e51b815260206004820152601860248201527f46616c6c6261636b2066756e6374696f6e2063616c6c6564000000000000000060448201526064015b60405180910390fd5b34801561015d575f80fd5b5061016760045481565b6040519081526020015b60405180910390f35b348015610185575f80fd5b5061016760075481565b34801561019a575f80fd5b506101036101a9366004610f5c565b610469565b3480156101b9575f80fd5b506101036101c8366004610f84565b610620565b3480156101d8575f80fd5b506101fb6101e7366004610f84565b60066020525f908152604090205460ff1681565b6040519015158152602001610171565b348015610216575f80fd5b50610167610225366004610f9b565b600260209081525f928352604080842090915290825290205481565b34801561024c575f80fd5b5061010361025b366004610f84565b610735565b34801561026b575f80fd5b505f5461027e906001600160a01b031681565b6040516001600160a01b039091168152602001610171565b3480156102a1575f80fd5b506101036102b0366004610f84565b610859565b3480156102c0575f80fd5b5061016760015481565b6101036103e1565b3480156102dd575f80fd5b506101036102ec366004610fcc565b6109c2565b3480156102fc575f80fd5b5061010361030b366004610f5c565b610b47565b34801561031b575f80fd5b5061038061032a366004610f84565b600360208190525f91825260409091208054600182015460028301549383015460048401546005850154600686015460079096015494966001600160a01b03948516969085169593949092169290919060ff1688565b604051610171989796959493929190611021565b34801561039f575f80fd5b506101fb6103ae366004610f84565b60056020525f908152604090205460ff1681565b3480156103cd575f80fd5b506101676103dc366004610f9b565b610d58565b335f9081525f805160206111a283398151915260205260408120805434929061040b9084906110a0565b9091555050335f8181525f805160206111a283398151915260205260408082205490517fdcbc1c05240f31ff3ad067ef1ee35ce4997762752e3a095284754544f4c709d79361045f939290913491906110b3565b60405180910390a1565b6001600160a01b0382166104cd5760405162461bcd60e51b815260206004820152602560248201527f43616e6e6f74206465706f73697420457468657220696e20746869732066756e60448201526431ba34b7b760d91b6064820152608401610149565b6040516323b872dd60e01b8152336004820152306024820152604481018290526001600160a01b038316906323b872dd906064016020604051808303815f875af115801561051d573d5f803e3d5ffd5b505050506040513d601f19601f8201168201806040525081019061054191906110dc565b6105855760405162461bcd60e51b8152602060048201526015602482015274151bdad95b881d1c985b9cd9995c8819985a5b1959605a1b6044820152606401610149565b6001600160a01b0382165f908152600260209081526040808320338452909152812080548392906105b79084906110a0565b90915550506001600160a01b0382165f908152600260209081526040808320338085529252918290205491517fdcbc1c05240f31ff3ad067ef1ee35ce4997762752e3a095284754544f4c709d792610614928692909186916110b3565b60405180910390a15050565b335f9081525f805160206111a283398151915260205260409020548111156106815760405162461bcd60e51b8152602060048201526014602482015273496e73756666696369656e742062616c616e636560601b6044820152606401610149565b335f9081525f805160206111a28339815191526020526040812080548392906106ab908490611102565b9091555050604051339082156108fc029083905f818181858888f193505050501580156106da573d5f803e3d5ffd5b50335f8181525f805160206111a283398151915260205260408082205490517ff341246adaac6f497bc2a656f546ab9e182111d630394f0c57c710a59a2cb5679361072a939290918691906110b3565b60405180910390a150565b5f818152600360205260409020805482146107855760405162461bcd60e51b815260206004820152601060248201526f125b9d985b1a59081bdc99195c88125160821b6044820152606401610149565b60018101546001600160a01b031633146107e15760405162461bcd60e51b815260206004820152601960248201527f556e617574686f72697a65642063616e63656c6c6174696f6e000000000000006044820152606401610149565b5f82815260056020819052604091829020805460ff19166001179055825460028401546003850154600486015493860154600687015495517f77de1da0be5f2d3b110d05c6694e5c4ff2d9da7cd23d84353ecf78c7b5acec61966106149633956001600160a01b039081169594911692909190611115565b5f8111801561086a57506004548111155b6108a95760405162461bcd60e51b815260206004820152601060248201526f125b9d985b1a59081bdc99195c88125160821b6044820152606401610149565b5f8181526006602052604090205460ff16156108fe5760405162461bcd60e51b815260206004820152601460248201527313dc99195c88185b1c9958591e48199a5b1b195960621b6044820152606401610149565b5f8181526005602052604090205460ff161561095c5760405162461bcd60e51b815260206004820152601760248201527f4f7264657220616c72656164792063616e63656c6c65640000000000000000006044820152606401610149565b5f818152600360208190526040909120805460018201546002830154938301546004840154600585015494956109a6956001600160a01b0394851694918216939290911690610d84565b545f908152600660205260409020805460ff1916600117905550565b60048054905f6109d183611153565b91905055506040518061010001604052806004548152602001336001600160a01b03168152602001856001600160a01b03168152602001848152602001836001600160a01b031681526020018281526020014281526020015f6002811115610a3b57610a3b61100d565b9052600480545f908152600360208181526040928390208551815590850151600180830180546001600160a01b039384166001600160a01b0319918216179091559487015160028085018054928516928816929092179091556060880151948401949094556080870151958301805496909216959094169490941790935560a0840151600584015560c0840151600684015560e08401516007840180549193909260ff19909216918490811115610af457610af461100d565b02179055509050507f9d33853d43e3607b4cc01fdc78338ff2dca6fef7db9232dae6d3eb55fbc3b109600454338686868642604051610b399796959493929190611115565b60405180910390a150505050565b6001600160a01b038216610bae5760405162461bcd60e51b815260206004820152602860248201527f43616e6e6f742077697468647261772045746865722077697468207468697320604482015267333ab731ba34b7b760c11b6064820152608401610149565b6001600160a01b0382165f908152600260209081526040808320338452909152902054811115610c175760405162461bcd60e51b8152602060048201526014602482015273496e73756666696369656e742062616c616e636560601b6044820152606401610149565b6001600160a01b0382165f90815260026020908152604080832033845290915281208054839290610c49908490611102565b909155505060405163a9059cbb60e01b8152336004820152602481018290526001600160a01b0383169063a9059cbb906044016020604051808303815f875af1158015610c98573d5f803e3d5ffd5b505050506040513d601f19601f82011682018060405250810190610cbc91906110dc565b610d005760405162461bcd60e51b8152602060048201526015602482015274151bdad95b881d1c985b9cd9995c8819985a5b1959605a1b6044820152606401610149565b6001600160a01b0382165f908152600260209081526040808320338085529252918290205491517ff341246adaac6f497bc2a656f546ab9e182111d630394f0c57c710a59a2cb56792610614928692909186916110b3565b6001600160a01b038083165f908152600260209081526040808320938516835292905220545b92915050565b5f606460015485610d95919061116b565b610d9f9190611182565b9050610dab81856110a0565b6001600160a01b0386165f90815260026020908152604080832033845290915281208054909190610ddd908490611102565b90915550506001600160a01b038086165f908152600260209081526040808320938a1683529290529081208054869290610e189084906110a0565b90915550506001600160a01b038086165f908152600260209081526040808320835490941683529290529081208054839290610e559084906110a0565b90915550506001600160a01b038084165f908152600260209081526040808320938a1683529290529081208054849290610e90908490611102565b90915550506001600160a01b0383165f90815260026020908152604080832033845290915281208054849290610ec79084906110a0565b9091555050604080518881526001600160a01b03888116602083015287811682840152606082018790528516608082015260a081018490523360c08201524260e082015290517f0dddf4182dc0fc1a311cb75f049c97403c6b8a99cf6b2229a36e7c526acb3f81918190036101000190a150505050505050565b80356001600160a01b0381168114610f57575f80fd5b919050565b5f8060408385031215610f6d575f80fd5b610f7683610f41565b946020939093013593505050565b5f60208284031215610f94575f80fd5b5035919050565b5f8060408385031215610fac575f80fd5b610fb583610f41565b9150610fc360208401610f41565b90509250929050565b5f805f8060808587031215610fdf575f80fd5b610fe885610f41565b935060208501359250610ffd60408601610f41565b9396929550929360600135925050565b634e487b7160e01b5f52602160045260245ffd5b8881526001600160a01b0388811660208301528781166040830152606082018790528516608082015260a0810184905260c0810183905261010081016003831061107957634e487b7160e01b5f52602160045260245ffd5b8260e08301529998505050505050505050565b634e487b7160e01b5f52601160045260245ffd5b80820180821115610d7e57610d7e61108c565b6001600160a01b0394851681529290931660208301526040820152606081019190915260800190565b5f602082840312156110ec575f80fd5b815180151581146110fb575f80fd5b9392505050565b81810381811115610d7e57610d7e61108c565b9687526001600160a01b03958616602088015293851660408701526060860192909252909216608084015260a083019190915260c082015260e00190565b5f600182016111645761116461108c565b5060010190565b8082028115828204841417610d7e57610d7e61108c565b5f8261119c57634e487b7160e01b5f52601260045260245ffd5b50049056feac33ff75c19e70fe83507db0d683fd3465c996598dc972688b7ace676c89077ba26469706673582212205e505265dd2dfff83fc4a03489bd8f465299b91e7e19cfbdde5869463a1e527964736f6c63430008150033",
  "immutableReferences": {},
  "source": "// SPDX-License-Identifier: UNLICENSED\r\n\r\npragma solidity ^0.8.21;\r\n\r\nimport \"./Token.sol\";\r\n\r\ncontract Exchange {\r\n    // Variables\r\n    address public feeAccount;\r\n    uint256 public feePercent;\r\n    address constant ETHER = address(0); // Represents Ether as a token in the exchange\r\n    mapping(address => mapping(address => uint256)) public tokens; // Tracks token balances\r\n    mapping(uint256 => _Order) public orders;\r\n    uint256 public orderCount;\r\n    mapping(uint256 => bool) public orderCancelled;\r\n    mapping(uint256 => bool) public orderFilled;\r\n\r\n    // Events\r\n    event Deposit(address token, address user, uint256 amount, uint256 balance);\r\n    event Withdraw(\r\n        address token,\r\n        address user,\r\n        uint256 amount,\r\n        uint256 balance\r\n    );\r\n    event Order(\r\n        uint256 id,\r\n        address user,\r\n        address tokenGet,\r\n        uint256 amountGet,\r\n        address tokenGive,\r\n        uint256 amountGive,\r\n        uint256 timeStamp\r\n    );\r\n    event Cancel(\r\n        uint256 id,\r\n        address user,\r\n        address tokenGet,\r\n        uint256 amountGet,\r\n        address tokenGive,\r\n        uint256 amountGive,\r\n        uint256 timeStamp\r\n    );\r\n    event Trade(\r\n        uint256 id,\r\n        address user,\r\n        address tokenGet,\r\n        uint256 amountGet,\r\n        address tokenGive,\r\n        uint256 amountGive,\r\n        address userFill,\r\n        uint256 timeStamp\r\n    );\r\n\r\n    // Structs\r\n    struct _Order {\r\n        uint256 id;\r\n        address user;\r\n        address tokenGet;\r\n        uint256 amountGet;\r\n        address tokenGive;\r\n        uint256 amountGive;\r\n        uint256 timeStamp;\r\n        Status status; // Order status (Open, Filled, Cancelled)\r\n    }\r\n\r\n    // Enum for Order Status\r\n    enum Status {\r\n        Open,\r\n        Filled,\r\n        Cancelled\r\n    }\r\n\r\n    uint256 public nextOrderId; // To track the next order ID\r\n\r\n    constructor(address _feeAccount, uint256 _feePercent) {\r\n        feeAccount = _feeAccount;\r\n        feePercent = _feePercent;\r\n    }\r\n\r\n    // Handle direct Ether transfers\r\n    receive() external payable {\r\n        depositEther(); // Deposit Ether directly if sent to the contract\r\n    }\r\n\r\n    // Fallback function to handle any calls with invalid data\r\n    fallback() external payable {\r\n        revert(\"Fallback function called\"); // Reverts any call with data\r\n    }\r\n\r\n    // Deposit Ether into the exchange\r\n    function depositEther() public payable {\r\n        tokens[ETHER][msg.sender] += msg.value; // Add Ether to the user's balance\r\n        emit Deposit(ETHER, msg.sender, msg.value, tokens[ETHER][msg.sender]);\r\n    }\r\n\r\n    // Withdraw Ether from the exchange\r\n    function withdrawEther(uint256 _amount) public {\r\n        require(tokens[ETHER][msg.sender] >= _amount, \"Insufficient balance\");\r\n        tokens[ETHER][msg.sender] -= _amount; // Deduct Ether from user's balance\r\n        payable(msg.sender).transfer(_amount); // Send Ether back to the user\r\n        emit Withdraw(ETHER, msg.sender, _amount, tokens[ETHER][msg.sender]);\r\n    }\r\n\r\n    // Deposit Tokens into the exchange\r\n    function depositToken(address _token, uint256 _amount) public {\r\n        require(_token != ETHER, \"Cannot deposit Ether in this function\");\r\n        require(\r\n            Token(_token).transferFrom(msg.sender, address(this), _amount),\r\n            \"Token transfer failed\"\r\n        );\r\n        tokens[_token][msg.sender] += _amount; // Update user's token balance\r\n        emit Deposit(_token, msg.sender, _amount, tokens[_token][msg.sender]);\r\n    }\r\n\r\n    // Withdraw Tokens from the exchange\r\n    function withdrawToken(address _token, uint256 _amount) public {\r\n        require(_token != ETHER, \"Cannot withdraw Ether with this function\");\r\n        require(tokens[_token][msg.sender] >= _amount, \"Insufficient balance\");\r\n        tokens[_token][msg.sender] -= _amount; // Deduct token balance\r\n        require(\r\n            Token(_token).transfer(msg.sender, _amount),\r\n            \"Token transfer failed\"\r\n        );\r\n        emit Withdraw(_token, msg.sender, _amount, tokens[_token][msg.sender]);\r\n    }\r\n\r\n    // Get the balance of a particular token for a user\r\n    function balanceOf(\r\n        address _token,\r\n        address _user\r\n    ) public view returns (uint256) {\r\n        return tokens[_token][_user];\r\n    }\r\n\r\n    function makeOrder(\r\n        address _tokenGet,\r\n        uint256 _amountGet,\r\n        address _tokenGive,\r\n        uint256 _amountGive\r\n    ) public {\r\n        orderCount++;\r\n        orders[orderCount] = _Order(\r\n            orderCount,\r\n            msg.sender,\r\n            _tokenGet,\r\n            _amountGet,\r\n            _tokenGive,\r\n            _amountGive,\r\n            block.timestamp,\r\n            Status.Open\r\n        );\r\n        emit Order(\r\n            orderCount,\r\n            msg.sender,\r\n            _tokenGet,\r\n            _amountGet,\r\n            _tokenGive,\r\n            _amountGive,\r\n            block.timestamp\r\n        );\r\n    }\r\n\r\n    // Cancel order\r\n    function cancelOrder(uint256 _id) public {\r\n        _Order storage _order = orders[_id];\r\n        require(_order.id == _id, \"Invalid order ID\");\r\n        require(_order.user == msg.sender, \"Unauthorized cancellation\");\r\n        orderCancelled[_id] = true;\r\n        emit Cancel(\r\n            _order.id,\r\n            msg.sender,\r\n            _order.tokenGet,\r\n            _order.amountGet,\r\n            _order.tokenGive,\r\n            _order.amountGive,\r\n            _order.timeStamp\r\n        );\r\n    }\r\n\r\n    // Fill order\r\n    // function fillOrder(uint256 _id) public {\r\n    //     _Order storage _order = orders[_id];\r\n    //     require(_order.id == _id, \"Invalid order ID\");\r\n    //     require(!orderFilled[_id], \"Order already filled\");\r\n    //     require(!orderCancelled[_id], \"Order already cancelled\");\r\n\r\n    //     uint256 feeAmount = (_order.amountGet * feePercent) / 100;\r\n\r\n    //     // Execute trade\r\n    //     tokens[_order.tokenGet][msg.sender] -= _order.amountGet; // Deduct from userFill\r\n    //     tokens[_order.tokenGet][_order.user] += _order.amountGet; // Add full amount to order creator\r\n    //     tokens[_order.tokenGet][feeAccount] += feeAmount; // Add fee to feeAccount\r\n    //     tokens[_order.tokenGive][_order.user] -= _order.amountGive; // Deduct tokenGive from order creator\r\n    //     tokens[_order.tokenGive][msg.sender] += _order.amountGive; // Add tokenGive to userFill\r\n\r\n    //     orderFilled[_id] = true;\r\n\r\n    //     emit Trade(\r\n    //         _order.id,\r\n    //         _order.user,\r\n    //         _order.tokenGet,\r\n    //         _order.amountGet,\r\n    //         _order.tokenGive,\r\n    //         _order.amountGive,\r\n    //         msg.sender,\r\n    //         block.timestamp\r\n    //     );\r\n    // }\r\n\r\n\r\n    function fillOrder(uint256 _id) public {\r\n        require(_id > 0 && _id <= orderCount, 'Invalid order ID');\r\n        require(!orderFilled[_id], 'Order already filled');\r\n        require(!orderCancelled[_id], 'Order already cancelled');\r\n        _Order storage _order = orders[_id];\r\n        _trade(_order.id, _order.user, _order.tokenGet, _order.amountGet, _order.tokenGive, _order.amountGive);\r\n        orderFilled[_order.id] = true;\r\n    }\r\n\r\n    function _trade(uint256 _orderId, address _user, address _tokenGet, uint256 _amountGet, address _tokenGive, uint256 _amountGive) internal {\r\n        // Fee paid by the user that fills the order, a.k.a. msg.sender.\r\n        uint256 _feeAmount = _amountGet * feePercent / 100;\r\n\r\n        tokens[_tokenGet][msg.sender] -= _amountGet + _feeAmount;\r\n        tokens[_tokenGet][_user] += _amountGet;\r\n        tokens[_tokenGet][feeAccount] += _feeAmount;\r\n        tokens[_tokenGive][_user] -= _amountGive;\r\n        tokens[_tokenGive][msg.sender] += _amountGive;\r\n\r\n        emit Trade(_orderId, _user, _tokenGet, _amountGet, _tokenGive, _amountGive, msg.sender, block.timestamp);\r\n    }\r\n\r\n}\r\n",
  "sourcePath": "/mnt/c/pr0/blockchain-developer-bootcamp/src/contracts/Exchange.sol",
  "compiler": {
    "name": "solc",
    "version": "0.8.21+commit.d9974bed.Emscripten.clang"
  },
  "schemaVersion": "3.4.16",
  "updatedAt": "2024-12-26T07:51:33.947Z",
  "networkType": "ethereum",
  "devdoc": {
    "kind": "dev",
    "methods": {},
    "version": 1
  },
  "userdoc": {
    "kind": "user",
    "methods": {},
    "version": 1
  }
}