{
  "contractName": "Migrations",
  "abi": [
    {
      "inputs": [],
      "stateMutability": "nonpayable",
      "type": "constructor"
    },
    {
      "inputs": [],
      "name": "last_Completed_Migration",
      "outputs": [
        {
          "internalType": "uint256",
          "name": "",
          "type": "uint256"
        }
      ],
      "stateMutability": "view",
      "type": "function",
      "constant": true
    },
    {
      "inputs": [],
      "name": "owner",
      "outputs": [
        {
          "internalType": "address",
          "name": "",
          "type": "address"
        }
      ],
      "stateMutability": "view",
      "type": "function",
      "constant": true
    },
    {
      "inputs": [
        {
          "internalType": "uint256",
          "name": "completed",
          "type": "uint256"
        }
      ],
      "name": "setCompleted",
      "outputs": [],
      "stateMutability": "nonpayable",
      "type": "function"
    },
    {
      "inputs": [
        {
          "internalType": "address",
          "name": "new_address",
          "type": "address"
        }
      ],
      "name": "upgrade",
      "outputs": [],
      "stateMutability": "nonpayable",
      "type": "function"
    }
  ],
  "bytecode": "0x608060405234801561001057600080fd5b50600080546001600160a01b03191633179055610251806100326000396000f3fe608060405234801561001057600080fd5b506004361061004c5760003560e01c8063034580d2146100515780630900f0101461006f5780638da5cb5b14610084578063fdacd57614610099575b600080fd5b6100596100ac565b6040516100669190610212565b60405180910390f35b61008261007d366004610188565b6100b2565b005b61008c61014a565b60405161006691906101ce565b6100826100a73660046101b6565b610159565b60015481565b6000546001600160a01b031633146100e55760405162461bcd60e51b81526004016100dc906101e2565b60405180910390fd5b600154604051637ed66abb60e11b815282916001600160a01b0383169163fdacd5769161011491600401610212565b600060405180830381600087803b15801561012e57600080fd5b505af1158015610142573d6000803e3d6000fd5b505050505050565b6000546001600160a01b031681565b6000546001600160a01b031633146101835760405162461bcd60e51b81526004016100dc906101e2565b600155565b600060208284031215610199578081fd5b81356001600160a01b03811681146101af578182fd5b9392505050565b6000602082840312156101c7578081fd5b5035919050565b6001600160a01b0391909116815260200190565b6020808252601690820152752cb7ba9030b932903737ba103a34329037bbb732b91760511b604082015260600190565b9081526020019056fea264697066735822122079274acab1e550d3a993845729faef3e738a4e7a0ac0719740dbd0df58dd97dc64736f6c63430007010033",
  "immutableReferences": {},
  "source": "// SPDX-License-Identifier: UNLICENSED\r\n\r\npragma solidity ^0.7.1;\r\npragma experimental ABIEncoderV2;\r\n\r\ncontract Migrations {\r\n    address public owner;\r\n    uint public last_Completed_Migration;\r\n\r\n    constructor() {\r\n        owner = msg.sender;\r\n    }\r\n\r\n    modifier restricted() {\r\n        require(msg.sender == owner, \"You are not the owner.\");\r\n        _;\r\n    }\r\n\r\n    function setCompleted(uint completed) public restricted {\r\n        last_Completed_Migration = completed;\r\n    }\r\n\r\n    function upgrade(address new_address) public restricted {\r\n        Migrations upgraded = Migrations(new_address);\r\n        upgraded.setCompleted(last_Completed_Migration);\r\n    }\r\n}\r\n",
  "sourcePath": "D:\\Blockchain Development\\Bootcamp\\pr0\\blockchain-developer-bootcamp\\src\\contracts\\Migration.sol",
  "compiler": {
    "name": "solc",
    "version": "0.7.1+commit.f4a555be.Emscripten.clang"
  },
  "schemaVersion": "3.4.16",
  "updatedAt": "2025-05-20T11:16:10.415Z",
  "networkType": "ethereum",
  "devdoc": {
    "kind": "dev",
    "methods": {},
    "version": 1
  },
  "userdoc": {
    "kind": "user",
    "methods": {},
    "version": 1
  }
}