{
  "contractName": "Migrations",
  "abi": [
    {
      "inputs": [],
      "stateMutability": "nonpayable",
      "type": "constructor"
    },
    {
      "inputs": [],
      "name": "last_Completed_Migration",
      "outputs": [
        {
          "internalType": "uint256",
          "name": "",
          "type": "uint256"
        }
      ],
      "stateMutability": "view",
      "type": "function"
    },
    {
      "inputs": [],
      "name": "owner",
      "outputs": [
        {
          "internalType": "address",
          "name": "",
          "type": "address"
        }
      ],
      "stateMutability": "view",
      "type": "function"
    },
    {
      "inputs": [
        {
          "internalType": "uint256",
          "name": "completed",
          "type": "uint256"
        }
      ],
      "name": "setCompleted",
      "outputs": [],
      "stateMutability": "nonpayable",
      "type": "function"
    },
    {
      "inputs": [
        {
          "internalType": "address",
          "name": "new_address",
          "type": "address"
        }
      ],
      "name": "upgrade",
      "outputs": [],
      "stateMutability": "nonpayable",
      "type": "function"
    }
  ],
  "bytecode": "0x608060405234801561000f575f80fd5b505f80546001600160a01b031916331790556102488061002e5f395ff3fe608060405234801561000f575f80fd5b506004361061004a575f3560e01c8063034580d21461004e5780630900f0101461006a5780638da5cb5b1461007f578063fdacd576146100a9575b5f80fd5b61005760015481565b6040519081526020015b60405180910390f35b61007d6100783660046101ce565b6100bc565b005b5f54610091906001600160a01b031681565b6040516001600160a01b039091168152602001610061565b61007d6100b73660046101fb565b610177565b5f546001600160a01b031633146101135760405162461bcd60e51b81526020600482015260166024820152752cb7ba9030b932903737ba103a34329037bbb732b91760511b60448201526064015b60405180910390fd5b600154604051637ed66abb60e11b815282916001600160a01b0383169163fdacd576916101469160040190815260200190565b5f604051808303815f87803b15801561015d575f80fd5b505af115801561016f573d5f803e3d5ffd5b505050505050565b5f546001600160a01b031633146101c95760405162461bcd60e51b81526020600482015260166024820152752cb7ba9030b932903737ba103a34329037bbb732b91760511b604482015260640161010a565b600155565b5f602082840312156101de575f80fd5b81356001600160a01b03811681146101f4575f80fd5b9392505050565b5f6020828403121561020b575f80fd5b503591905056fea2646970667358221220b3f69e50045e035822f94ca1b43882a350a4b771b141c9408b6bf5a0b46296ad64736f6c63430008150033",
  "immutableReferences": {},
  "source": "// SPDX-License-Identifier: UNLICENSED\r\npragma solidity ^0.8.0;\r\n\r\ncontract Migrations {\r\n    address public owner;\r\n    uint public last_Completed_Migration;\r\n\r\n    constructor() {\r\n        owner = msg.sender;\r\n    }\r\n\r\n    modifier restricted() {\r\n        require(msg.sender == owner, \"You are not the owner.\");\r\n        _;\r\n    }\r\n\r\n    function setCompleted(uint completed) public restricted {\r\n        last_Completed_Migration = completed;\r\n    }\r\n\r\n    function upgrade(address new_address) public restricted {\r\n        Migrations upgraded = Migrations(new_address);\r\n        upgraded.setCompleted(last_Completed_Migration);\r\n    }\r\n}\r\n",
  "sourcePath": "/mnt/c/pr0/blockchain-developer-bootcamp/src/contracts/Migration.sol",
  "compiler": {
    "name": "solc",
    "version": "0.8.21+commit.d9974bed.Emscripten.clang"
  },
  "schemaVersion": "3.4.16",
  "updatedAt": "2024-12-23T14:09:23.094Z",
  "devdoc": {
    "kind": "dev",
    "methods": {},
    "version": 1
  },
  "userdoc": {
    "kind": "user",
    "methods": {},
    "version": 1
  }
}