{
  "contractName": "Token",
  "abi": [
    {
      "inputs": [],
      "stateMutability": "nonpayable",
      "type": "constructor"
    },
    {
      "anonymous": false,
      "inputs": [
        {
          "indexed": true,
          "internalType": "address",
          "name": "from",
          "type": "address"
        },
        {
          "indexed": true,
          "internalType": "address",
          "name": "to",
          "type": "address"
        },
        {
          "indexed": false,
          "internalType": "uint256",
          "name": "value",
          "type": "uint256"
        }
      ],
      "name": "Transfer",
      "type": "event"
    },
    {
      "inputs": [
        {
          "internalType": "address",
          "name": "",
          "type": "address"
        }
      ],
      "name": "balanceOf",
      "outputs": [
        {
          "internalType": "uint256",
          "name": "",
          "type": "uint256"
        }
      ],
      "stateMutability": "view",
      "type": "function"
    },
    {
      "inputs": [],
      "name": "decimals",
      "outputs": [
        {
          "internalType": "uint256",
          "name": "",
          "type": "uint256"
        }
      ],
      "stateMutability": "view",
      "type": "function"
    },
    {
      "inputs": [],
      "name": "name",
      "outputs": [
        {
          "internalType": "string",
          "name": "",
          "type": "string"
        }
      ],
      "stateMutability": "view",
      "type": "function"
    },
    {
      "inputs": [],
      "name": "symbol",
      "outputs": [
        {
          "internalType": "string",
          "name": "",
          "type": "string"
        }
      ],
      "stateMutability": "view",
      "type": "function"
    },
    {
      "inputs": [],
      "name": "totalSupply",
      "outputs": [
        {
          "internalType": "uint256",
          "name": "",
          "type": "uint256"
        }
      ],
      "stateMutability": "view",
      "type": "function"
    },
    {
      "inputs": [
        {
          "internalType": "address",
          "name": "_to",
          "type": "address"
        },
        {
          "internalType": "uint256",
          "name": "_value",
          "type": "uint256"
        }
      ],
      "name": "transfer",
      "outputs": [
        {
          "internalType": "bool",
          "name": "success",
          "type": "bool"
        }
      ],
      "stateMutability": "nonpayable",
      "type": "function"
    }
  ],
  "bytecode": "0x60c06040526008608090815267213637b1b5ad32b760c11b60a0525f90610026908261012f565b50604080518082019091526004815263212d32b760e11b602082015260019061004f908261012f565b506012600255348015610060575f80fd5b5060025461006f90600a6102e0565b61007c90620f42406102f2565b6003819055335f90815260046020526040902055610309565b634e487b7160e01b5f52604160045260245ffd5b600181811c908216806100bd57607f821691505b6020821081036100db57634e487b7160e01b5f52602260045260245ffd5b50919050565b601f82111561012a575f81815260208120601f850160051c810160208610156101075750805b601f850160051c820191505b8181101561012657828155600101610113565b5050505b505050565b81516001600160401b0381111561014857610148610095565b61015c8161015684546100a9565b846100e1565b602080601f83116001811461018f575f84156101785750858301515b5f19600386901b1c1916600185901b178555610126565b5f85815260208120601f198616915b828110156101bd5788860151825594840194600190910190840161019e565b50858210156101da57878501515f19600388901b60f8161c191681555b5050505050600190811b01905550565b634e487b7160e01b5f52601160045260245ffd5b600181815b8085111561023857815f190482111561021e5761021e6101ea565b8085161561022b57918102915b93841c9390800290610203565b509250929050565b5f8261024e575060016102da565b8161025a57505f6102da565b8160018114610270576002811461027a57610296565b60019150506102da565b60ff84111561028b5761028b6101ea565b50506001821b6102da565b5060208310610133831016604e8410600b84101617156102b9575081810a6102da565b6102c383836101fe565b805f19048211156102d6576102d66101ea565b0290505b92915050565b5f6102eb8383610240565b9392505050565b80820281158282048414176102da576102da6101ea565b610415806103165f395ff3fe608060405234801561000f575f80fd5b5060043610610060575f3560e01c806306fdde031461006457806318160ddd14610082578063313ce5671461009957806370a08231146100a257806395d89b41146100c1578063a9059cbb146100c9575b5f80fd5b61006c6100ec565b60405161007991906102bf565b60405180910390f35b61008b60035481565b604051908152602001610079565b61008b60025481565b61008b6100b0366004610325565b60046020525f908152604090205481565b61006c610177565b6100dc6100d7366004610345565b610184565b6040519015158152602001610079565b5f80546100f89061036d565b80601f01602080910402602001604051908101604052809291908181526020018280546101249061036d565b801561016f5780601f106101465761010080835404028352916020019161016f565b820191905f5260205f20905b81548152906001019060200180831161015257829003601f168201915b505050505081565b600180546100f89061036d565b335f908152600460205260408120548211156101de5760405162461bcd60e51b8152602060048201526014602482015273496e73756666696369656e742062616c616e636560601b60448201526064015b60405180910390fd5b6001600160a01b0383166102265760405162461bcd60e51b815260206004820152600f60248201526e496e76616c6964206164647265737360881b60448201526064016101d5565b335f90815260046020526040812080548492906102449084906103b9565b90915550506001600160a01b0383165f90815260046020526040812080548492906102709084906103cc565b90915550506040518281526001600160a01b0384169033907fddf252ad1be2c89b69c2b068fc378daa952ba7f163c4a11628f55a4df523b3ef9060200160405180910390a35060015b92915050565b5f6020808352835180828501525f5b818110156102ea578581018301518582016040015282016102ce565b505f604082860101526040601f19601f8301168501019250505092915050565b80356001600160a01b0381168114610320575f80fd5b919050565b5f60208284031215610335575f80fd5b61033e8261030a565b9392505050565b5f8060408385031215610356575f80fd5b61035f8361030a565b946020939093013593505050565b600181811c9082168061038157607f821691505b60208210810361039f57634e487b7160e01b5f52602260045260245ffd5b50919050565b634e487b7160e01b5f52601160045260245ffd5b818103818111156102b9576102b96103a5565b808201808211156102b9576102b96103a556fea26469706673582212200a7e1a4b3a8543b835a6e9c82f7e73f90dcc1465c891efeefa9909edc7bea08a64736f6c63430008150033",
  "immutableReferences": {},
  "source": "// SPDX-License-Identifier: UNLICENSED\r\npragma solidity ^0.8.0;\r\n\r\ncontract Token {\r\n    // Variables\r\n    string public name = \"BlockZen\";\r\n    string public symbol = \"BZen\";\r\n    uint256 public decimals = 18;\r\n    uint256 public totalSupply;\r\n\r\n    // Track Balance\r\n    mapping(address => uint256) public balanceOf;\r\n\r\n    // Events\r\n    event Transfer(address indexed from, address indexed to, uint256 value);\r\n\r\n    // Send Tokens\r\n    constructor() {\r\n        totalSupply = 1000000 * (10 ** decimals);\r\n        balanceOf[msg.sender] = totalSupply;\r\n    }\r\n\r\nfunction transfer(address _to, uint256 _value) public returns (bool success) {\r\n    require(balanceOf[msg.sender] >= _value, \"Insufficient balance\");  // Add the revert message here\r\n    require(_to != address(0), \"Invalid address\");\r\n    balanceOf[msg.sender] -= _value;\r\n    balanceOf[_to] += _value;\r\n    emit Transfer(msg.sender, _to, _value);\r\n    return true;\r\n}\r\n\r\n}\r\n",
  "sourcePath": "/mnt/c/pr0/blockchain-developer-bootcamp/src/contracts/Token.sol",
  "compiler": {
    "name": "solc",
    "version": "0.8.21+commit.d9974bed.Emscripten.clang"
  },
  "schemaVersion": "3.4.16",
  "updatedAt": "2024-12-23T15:52:48.665Z",
  "devdoc": {
    "kind": "dev",
    "methods": {},
    "version": 1
  },
  "userdoc": {
    "kind": "user",
    "methods": {},
    "version": 1
  }
}